{
  "contractName": "SolnSquareVerifier",
  "abi": [
    {
      "constant": true,
      "inputs": [
        {
          "name": "interfaceId",
          "type": "bytes4"
        }
      ],
      "name": "supportsInterface",
      "outputs": [
        {
          "name": "",
          "type": "bool"
        }
      ],
      "payable": false,
      "stateMutability": "view",
      "type": "function"
    },
    {
      "constant": false,
      "inputs": [
        {
          "name": "_isPause",
          "type": "bool"
        }
      ],
      "name": "pause",
      "outputs": [],
      "payable": false,
      "stateMutability": "nonpayable",
      "type": "function"
    },
    {
      "constant": true,
      "inputs": [
        {
          "name": "tokenId",
          "type": "uint256"
        }
      ],
      "name": "getApproved",
      "outputs": [
        {
          "name": "",
          "type": "address"
        }
      ],
      "payable": false,
      "stateMutability": "view",
      "type": "function"
    },
    {
      "constant": false,
      "inputs": [
        {
          "name": "to",
          "type": "address"
        },
        {
          "name": "tokenId",
          "type": "uint256"
        }
      ],
      "name": "approve",
      "outputs": [],
      "payable": false,
      "stateMutability": "nonpayable",
      "type": "function"
    },
    {
      "constant": true,
      "inputs": [],
      "name": "getSymbol",
      "outputs": [
        {
          "name": "",
          "type": "string"
        }
      ],
      "payable": false,
      "stateMutability": "view",
      "type": "function"
    },
    {
      "constant": true,
      "inputs": [],
      "name": "getName",
      "outputs": [
        {
          "name": "",
          "type": "string"
        }
      ],
      "payable": false,
      "stateMutability": "view",
      "type": "function"
    },
    {
      "constant": true,
      "inputs": [],
      "name": "totalSupply",
      "outputs": [
        {
          "name": "",
          "type": "uint256"
        }
      ],
      "payable": false,
      "stateMutability": "view",
      "type": "function"
    },
    {
      "constant": false,
      "inputs": [
        {
          "name": "from",
          "type": "address"
        },
        {
          "name": "to",
          "type": "address"
        },
        {
          "name": "tokenId",
          "type": "uint256"
        }
      ],
      "name": "transferFrom",
      "outputs": [],
      "payable": false,
      "stateMutability": "nonpayable",
      "type": "function"
    },
    {
      "constant": false,
      "inputs": [
        {
          "name": "_myid",
          "type": "bytes32"
        },
        {
          "name": "_result",
          "type": "string"
        }
      ],
      "name": "__callback",
      "outputs": [],
      "payable": false,
      "stateMutability": "nonpayable",
      "type": "function"
    },
    {
      "constant": true,
      "inputs": [
        {
          "name": "owner",
          "type": "address"
        },
        {
          "name": "index",
          "type": "uint256"
        }
      ],
      "name": "tokenOfOwnerByIndex",
      "outputs": [
        {
          "name": "",
          "type": "uint256"
        }
      ],
      "payable": false,
      "stateMutability": "view",
      "type": "function"
    },
    {
      "constant": false,
      "inputs": [
        {
          "name": "_myid",
          "type": "bytes32"
        },
        {
          "name": "_result",
          "type": "string"
        },
        {
          "name": "_proof",
          "type": "bytes"
        }
      ],
      "name": "__callback",
      "outputs": [],
      "payable": false,
      "stateMutability": "nonpayable",
      "type": "function"
    },
    {
      "constant": false,
      "inputs": [
        {
          "name": "to",
          "type": "address"
        },
        {
          "name": "tokenId",
          "type": "uint256"
        }
      ],
      "name": "mint",
      "outputs": [
        {
          "name": "",
          "type": "bool"
        }
      ],
      "payable": false,
      "stateMutability": "nonpayable",
      "type": "function"
    },
    {
      "constant": false,
      "inputs": [
        {
          "name": "from",
          "type": "address"
        },
        {
          "name": "to",
          "type": "address"
        },
        {
          "name": "tokenId",
          "type": "uint256"
        }
      ],
      "name": "safeTransferFrom",
      "outputs": [],
      "payable": false,
      "stateMutability": "nonpayable",
      "type": "function"
    },
    {
      "constant": true,
      "inputs": [
        {
          "name": "index",
          "type": "uint256"
        }
      ],
      "name": "tokenByIndex",
      "outputs": [
        {
          "name": "",
          "type": "uint256"
        }
      ],
      "payable": false,
      "stateMutability": "view",
      "type": "function"
    },
    {
      "constant": true,
      "inputs": [
        {
          "name": "tokenId",
          "type": "uint256"
        }
      ],
      "name": "ownerOf",
      "outputs": [
        {
          "name": "",
          "type": "address"
        }
      ],
      "payable": false,
      "stateMutability": "view",
      "type": "function"
    },
    {
      "constant": true,
      "inputs": [
        {
          "name": "owner",
          "type": "address"
        }
      ],
      "name": "balanceOf",
      "outputs": [
        {
          "name": "",
          "type": "uint256"
        }
      ],
      "payable": false,
      "stateMutability": "view",
      "type": "function"
    },
    {
      "constant": true,
      "inputs": [],
      "name": "getOwner",
      "outputs": [
        {
          "name": "",
          "type": "address"
        }
      ],
      "payable": false,
      "stateMutability": "view",
      "type": "function"
    },
    {
      "constant": false,
      "inputs": [
        {
          "name": "to",
          "type": "address"
        },
        {
          "name": "approved",
          "type": "bool"
        }
      ],
      "name": "setApprovalForAll",
      "outputs": [],
      "payable": false,
      "stateMutability": "nonpayable",
      "type": "function"
    },
    {
      "constant": false,
      "inputs": [
        {
          "name": "from",
          "type": "address"
        },
        {
          "name": "to",
          "type": "address"
        },
        {
          "name": "tokenId",
          "type": "uint256"
        },
        {
          "name": "_data",
          "type": "bytes"
        }
      ],
      "name": "safeTransferFrom",
      "outputs": [],
      "payable": false,
      "stateMutability": "nonpayable",
      "type": "function"
    },
    {
      "constant": true,
      "inputs": [],
      "name": "getBaseTokenURI",
      "outputs": [
        {
          "name": "",
          "type": "string"
        }
      ],
      "payable": false,
      "stateMutability": "view",
      "type": "function"
    },
    {
      "constant": true,
      "inputs": [
        {
          "name": "tokenId",
          "type": "uint256"
        }
      ],
      "name": "tokenURI",
      "outputs": [
        {
          "name": "",
          "type": "string"
        }
      ],
      "payable": false,
      "stateMutability": "view",
      "type": "function"
    },
    {
      "constant": true,
      "inputs": [
        {
          "name": "owner",
          "type": "address"
        },
        {
          "name": "operator",
          "type": "address"
        }
      ],
      "name": "isApprovedForAll",
      "outputs": [
        {
          "name": "",
          "type": "bool"
        }
      ],
      "payable": false,
      "stateMutability": "view",
      "type": "function"
    },
    {
      "constant": false,
      "inputs": [
        {
          "name": "newOwner",
          "type": "address"
        }
      ],
      "name": "transferOwnership",
      "outputs": [],
      "payable": false,
      "stateMutability": "nonpayable",
      "type": "function"
    },
    {
      "inputs": [
        {
          "name": "name",
          "type": "string"
        },
        {
          "name": "symbol",
          "type": "string"
        }
      ],
      "payable": false,
      "stateMutability": "nonpayable",
      "type": "constructor"
    },
    {
      "anonymous": false,
      "inputs": [
        {
          "indexed": false,
          "name": "index",
          "type": "uint256"
        },
        {
          "indexed": false,
          "name": "client",
          "type": "address"
        }
      ],
      "name": "AddSolution",
      "type": "event"
    },
    {
      "anonymous": false,
      "inputs": [
        {
          "indexed": true,
          "name": "from",
          "type": "address"
        },
        {
          "indexed": true,
          "name": "to",
          "type": "address"
        },
        {
          "indexed": true,
          "name": "tokenId",
          "type": "uint256"
        }
      ],
      "name": "Transfer",
      "type": "event"
    },
    {
      "anonymous": false,
      "inputs": [
        {
          "indexed": true,
          "name": "owner",
          "type": "address"
        },
        {
          "indexed": true,
          "name": "approved",
          "type": "address"
        },
        {
          "indexed": true,
          "name": "tokenId",
          "type": "uint256"
        }
      ],
      "name": "Approval",
      "type": "event"
    },
    {
      "anonymous": false,
      "inputs": [
        {
          "indexed": true,
          "name": "owner",
          "type": "address"
        },
        {
          "indexed": true,
          "name": "operator",
          "type": "address"
        },
        {
          "indexed": false,
          "name": "approved",
          "type": "bool"
        }
      ],
      "name": "ApprovalForAll",
      "type": "event"
    },
    {
      "anonymous": false,
      "inputs": [
        {
          "indexed": false,
          "name": "eventAddress",
          "type": "address"
        }
      ],
      "name": "Paused",
      "type": "event"
    },
    {
      "anonymous": false,
      "inputs": [
        {
          "indexed": false,
          "name": "eventAddress",
          "type": "address"
        }
      ],
      "name": "Unpaused",
      "type": "event"
    },
    {
      "anonymous": false,
      "inputs": [
        {
          "indexed": true,
          "name": "previousOwner",
          "type": "address"
        },
        {
          "indexed": true,
          "name": "newOwner",
          "type": "address"
        }
      ],
      "name": "ownershipTransferred",
      "type": "event"
    },
    {
      "constant": false,
      "inputs": [
        {
          "name": "to",
          "type": "address"
        },
        {
          "name": "tokenId",
          "type": "uint256"
        },
        {
          "name": "a",
          "type": "uint256[2]"
        },
        {
          "name": "a_p",
          "type": "uint256[2]"
        },
        {
          "name": "b",
          "type": "uint256[2][2]"
        },
        {
          "name": "b_p",
          "type": "uint256[2]"
        },
        {
          "name": "c",
          "type": "uint256[2]"
        },
        {
          "name": "c_p",
          "type": "uint256[2]"
        },
        {
          "name": "h",
          "type": "uint256[2]"
        },
        {
          "name": "k",
          "type": "uint256[2]"
        },
        {
          "name": "input",
          "type": "uint256[2]"
        }
      ],
      "name": "mintNewNFT",
      "outputs": [],
      "payable": false,
      "stateMutability": "nonpayable",
      "type": "function"
    }
  ],
  "bytecode": "0x6080604052606060405190810160405280603f81526020017f68747470733a2f2f73332d75732d776573742d322e616d617a6f6e6177732e6381526020017f6f6d2f756461636974792d626c6f636b636861696e2f63617073746f6e652f00815250601390805190602001906200007892919062000580565b503480156200008657600080fd5b50604051620058d2380380620058d283398101806040526040811015620000ac57600080fd5b810190808051640100000000811115620000c557600080fd5b82810190506020810184811115620000dc57600080fd5b8151856001820283011164010000000082111715620000fa57600080fd5b505092919060200180516401000000008111156200011757600080fd5b828101905060208101848111156200012e57600080fd5b81518560018202830111640100000000821117156200014c57600080fd5b50509291905050508181818160138054600181600116156101000203166002900480601f016020809104026020016040519081016040528092919081815260200182805460018160011615610100020316600290048015620001f25780601f10620001c657610100808354040283529160200191620001f2565b820191906000526020600020905b815481529060010190602001808311620001d457829003601f168201915b5050505050336000806101000a81548173ffffffffffffffffffffffffffffffffffffffff021916908373ffffffffffffffffffffffffffffffffffffffff1602179055506000809054906101000a900473ffffffffffffffffffffffffffffffffffffffff1673ffffffffffffffffffffffffffffffffffffffff16600073ffffffffffffffffffffffffffffffffffffffff167f7699c77f2404f9b6bbd003861bb4af8ae70b205e19e73d7ec7fe4590db59a6b760405160405180910390a360008060146101000a81548160ff0219169083151502179055506200030a6301ffc9a77c010000000000000000000000000000000000000000000000000000000002620004c2640100000000026401000000009004565b620003476380ac58cd7c010000000000000000000000000000000000000000000000000000000002620004c2640100000000026401000000009004565b6200038463780e9d637c010000000000000000000000000000000000000000000000000000000002620004c2640100000000026401000000009004565b82600f90805190602001906200039c92919062000580565b508160109080519060200190620003b592919062000580565b508060119080519060200190620003ce92919062000580565b506200040c635b5e139f7c010000000000000000000000000000000000000000000000000000000002620004c2640100000000026401000000009004565b505050505033601560006101000a81548173ffffffffffffffffffffffffffffffffffffffff021916908373ffffffffffffffffffffffffffffffffffffffff1602179055506200045c62000607565b604051809103906000f08015801562000479573d6000803e3d6000fd5b50601460006101000a81548173ffffffffffffffffffffffffffffffffffffffff021916908373ffffffffffffffffffffffffffffffffffffffff160217905550505062000640565b63ffffffff7c010000000000000000000000000000000000000000000000000000000002817bffffffffffffffffffffffffffffffffffffffffffffffffffffffff1916141515156200051457600080fd5b6001806000837bffffffffffffffffffffffffffffffffffffffffffffffffffffffff19167bffffffffffffffffffffffffffffffffffffffffffffffffffffffff1916815260200190815260200160002060006101000a81548160ff02191690831515021790555050565b828054600181600116156101000203166002900490600052602060002090601f016020900481019282601f10620005c357805160ff1916838001178555620005f4565b82800160010185558215620005f4579182015b82811115620005f3578251825591602001919060010190620005d6565b5b50905062000603919062000618565b5090565b60405161196d8062003f6583390190565b6200063d91905b80821115620006395760008160009055506001016200061f565b5090565b90565b61391580620006506000396000f3fe608060405260043610610138576000357c01000000000000000000000000000000000000000000000000000000009004806301ffc9a71461013d57806302329a29146101af578063081812fc146101ec578063095ea7b31461026757806315070401146102c257806317d7de7c1461035257806318160ddd146103e257806323b872dd1461040d57806327dc297e146104885780632f745c591461055a57806338bbfa50146105c957806340c10f191461073257806342842e0e146107a55780634f6ccce7146108205780636352211e1461086f57806370a08231146108ea578063893d20e81461094f578063a22cb465146109a6578063b88d4fde14610a03578063bdc32be014610b15578063c87b56dd14610ba5578063c9831ab414610c59578063e985e9c514610d0f578063f2fde38b14610d98575b600080fd5b34801561014957600080fd5b506101956004803603602081101561016057600080fd5b8101908080357bffffffffffffffffffffffffffffffffffffffffffffffffffffffff19169060200190929190505050610de9565b604051808215151515815260200191505060405180910390f35b3480156101bb57600080fd5b506101ea600480360360208110156101d257600080fd5b81019080803515159060200190929190505050610e51565b005b3480156101f857600080fd5b506102256004803603602081101561020f57600080fd5b810190808035906020019092919050505061103a565b604051808273ffffffffffffffffffffffffffffffffffffffff1673ffffffffffffffffffffffffffffffffffffffff16815260200191505060405180910390f35b34801561027357600080fd5b506102c06004803603604081101561028a57600080fd5b81019080803573ffffffffffffffffffffffffffffffffffffffff16906020019092919080359060200190929190505050611077565b005b3480156102ce57600080fd5b506102d76112b4565b6040518080602001828103825283818151815260200191508051906020019080838360005b838110156103175780820151818401526020810190506102fc565b50505050905090810190601f1680156103445780820380516001836020036101000a031916815260200191505b509250505060405180910390f35b34801561035e57600080fd5b50610367611356565b6040518080602001828103825283818151815260200191508051906020019080838360005b838110156103a757808201518184015260208101905061038c565b50505050905090810190601f1680156103d45780820380516001836020036101000a031916815260200191505b509250505060405180910390f35b3480156103ee57600080fd5b506103f76113f8565b6040518082815260200191505060405180910390f35b34801561041957600080fd5b506104866004803603606081101561043057600080fd5b81019080803573ffffffffffffffffffffffffffffffffffffffff169060200190929190803573ffffffffffffffffffffffffffffffffffffffff16906020019092919080359060200190929190505050611405565b005b34801561049457600080fd5b50610558600480360360408110156104ab57600080fd5b8101908080359060200190929190803590602001906401000000008111156104d257600080fd5b8201836020820111156104e457600080fd5b8035906020019184600183028401116401000000008311171561050657600080fd5b91908080601f016020809104026020016040519081016040528093929190818152602001838380828437600081840152601f19601f82011690508083019250505050505050919291929050505061142a565b005b34801561056657600080fd5b506105b36004803603604081101561057d57600080fd5b81019080803573ffffffffffffffffffffffffffffffffffffffff1690602001909291908035906020019092919050505061146d565b6040518082815260200191505060405180910390f35b3480156105d557600080fd5b50610730600480360360608110156105ec57600080fd5b81019080803590602001909291908035906020019064010000000081111561061357600080fd5b82018360208201111561062557600080fd5b8035906020019184600183028401116401000000008311171561064757600080fd5b91908080601f016020809104026020016040519081016040528093929190818152602001838380828437600081840152601f19601f820116905080830192505050505050509192919290803590602001906401000000008111156106aa57600080fd5b8201836020820111156106bc57600080fd5b803590602001918460018302840111640100000000831117156106de57600080fd5b91908080601f016020809104026020016040519081016040528093929190818152602001838380828437600081840152601f19601f8201169050808301925050505050505091929192905050506114e4565b005b34801561073e57600080fd5b5061078b6004803603604081101561075557600080fd5b81019080803573ffffffffffffffffffffffffffffffffffffffff169060200190929190803590602001909291905050506114e9565b604051808215151515815260200191505060405180910390f35b3480156107b157600080fd5b5061081e600480360360608110156107c857600080fd5b81019080803573ffffffffffffffffffffffffffffffffffffffff169060200190929190803573ffffffffffffffffffffffffffffffffffffffff169060200190929190803590602001909291905050506115f3565b005b34801561082c57600080fd5b506108596004803603602081101561084357600080fd5b8101908080359060200190929190505050611614565b6040518082815260200191505060405180910390f35b34801561087b57600080fd5b506108a86004803603602081101561089257600080fd5b810190808035906020019092919050505061164c565b604051808273ffffffffffffffffffffffffffffffffffffffff1673ffffffffffffffffffffffffffffffffffffffff16815260200191505060405180910390f35b3480156108f657600080fd5b506109396004803603602081101561090d57600080fd5b81019080803573ffffffffffffffffffffffffffffffffffffffff169060200190929190505050611689565b6040518082815260200191505060405180910390f35b34801561095b57600080fd5b506109646116d9565b604051808273ffffffffffffffffffffffffffffffffffffffff1673ffffffffffffffffffffffffffffffffffffffff16815260200191505060405180910390f35b3480156109b257600080fd5b50610a01600480360360408110156109c957600080fd5b81019080803573ffffffffffffffffffffffffffffffffffffffff169060200190929190803515159060200190929190505050611702565b005b348015610a0f57600080fd5b50610b1360048036036080811015610a2657600080fd5b81019080803573ffffffffffffffffffffffffffffffffffffffff169060200190929190803573ffffffffffffffffffffffffffffffffffffffff1690602001909291908035906020019092919080359060200190640100000000811115610a8d57600080fd5b820183602082011115610a9f57600080fd5b80359060200191846001830284011164010000000083111715610ac157600080fd5b91908080601f016020809104026020016040519081016040528093929190818152602001838380828437600081840152601f19601f82011690508083019250505050505050919291929050505061183e565b005b348015610b2157600080fd5b50610b2a611866565b6040518080602001828103825283818151815260200191508051906020019080838360005b83811015610b6a578082015181840152602081019050610b4f565b50505050905090810190601f168015610b975780820380516001836020036101000a031916815260200191505b509250505060405180910390f35b348015610bb157600080fd5b50610bde60048036036020811015610bc857600080fd5b8101908080359060200190929190505050611908565b6040518080602001828103825283818151815260200191508051906020019080838360005b83811015610c1e578082015181840152602081019050610c03565b50505050905090810190601f168015610c4b5780820380516001836020036101000a031916815260200191505b509250505060405180910390f35b348015610c6557600080fd5b50610d0d60048036036102c0811015610c7d57600080fd5b81019080803573ffffffffffffffffffffffffffffffffffffffff169060200190929190803590602001909291908060400190919291929080604001909192919290806080019091929192908060400190919291929080604001909192919290806040019091929192908060400190919291929080604001909192919290806040019091929192905050506119d1565b005b348015610d1b57600080fd5b50610d7e60048036036040811015610d3257600080fd5b81019080803573ffffffffffffffffffffffffffffffffffffffff169060200190929190803573ffffffffffffffffffffffffffffffffffffffff169060200190929190505050611e9a565b604051808215151515815260200191505060405180910390f35b348015610da457600080fd5b50610de760048036036020811015610dbb57600080fd5b81019080803573ffffffffffffffffffffffffffffffffffffffff169060200190929190505050611f2e565b005b600060016000837bffffffffffffffffffffffffffffffffffffffffffffffffffffffff19167bffffffffffffffffffffffffffffffffffffffffffffffffffffffff1916815260200190815260200160002060009054906101000a900460ff169050919050565b601560009054906101000a900473ffffffffffffffffffffffffffffffffffffffff1673ffffffffffffffffffffffffffffffffffffffff163373ffffffffffffffffffffffffffffffffffffffff16141515610f3c576040517f08c379a00000000000000000000000000000000000000000000000000000000081526004018080602001828103825260238152602001807f6f6e6c79206f776e65722063616e207573652074686973207472616e7361637481526020017f696f6e000000000000000000000000000000000000000000000000000000000081525060400191505060405180910390fd5b80600060146101000a81548160ff021916908315150217905550600060149054906101000a900460ff1615610fd3577f62e78cea01bee320cd4e420270b5ea74000d11b0c9f74754ebdbfc544b05a25833604051808273ffffffffffffffffffffffffffffffffffffffff1673ffffffffffffffffffffffffffffffffffffffff16815260200191505060405180910390a1611037565b7f5db9ee0a495bf2e6ff9c91a7834c1ba4fdd244a5e8aa4e537bd38aeae4b073aa33604051808273ffffffffffffffffffffffffffffffffffffffff1673ffffffffffffffffffffffffffffffffffffffff16815260200191505060405180910390a15b50565b60006003600083815260200190815260200160002060009054906101000a900473ffffffffffffffffffffffffffffffffffffffff169050919050565b60006110828261164c565b90508073ffffffffffffffffffffffffffffffffffffffff168373ffffffffffffffffffffffffffffffffffffffff1614151515611128576040517f08c379a00000000000000000000000000000000000000000000000000000000081526004018080602001828103825260138152602001807f63616e6e6f742073656c6620617070726f76650000000000000000000000000081525060200191505060405180910390fd5b8073ffffffffffffffffffffffffffffffffffffffff163373ffffffffffffffffffffffffffffffffffffffff16148061116857506111678133611e9a565b5b1515611202576040517f08c379a000000000000000000000000000000000000000000000000000000000815260040180806020018281038252602b8152602001807f63616c6c6572206973206e6f7420617574686f72697a656420616761696e737481526020017f207468697320746f6b656e00000000000000000000000000000000000000000081525060400191505060405180910390fd5b826003600084815260200190815260200160002060006101000a81548173ffffffffffffffffffffffffffffffffffffffff021916908373ffffffffffffffffffffffffffffffffffffffff160217905550818373ffffffffffffffffffffffffffffffffffffffff168273ffffffffffffffffffffffffffffffffffffffff167f8c5be1e5ebec7d5bd14f71427d1e84f3dd0314c0f7b2291e5b200ac8c7c3b92560405160405180910390a4505050565b606060108054600181600116156101000203166002900480601f01602080910402602001604051908101604052809291908181526020018280546001816001161561010002031660029004801561134c5780601f106113215761010080835404028352916020019161134c565b820191906000526020600020905b81548152906001019060200180831161132f57829003601f168201915b5050505050905090565b6060600f8054600181600116156101000203166002900480601f0160208091040260200160405190810160405280929190818152602001828054600181600116156101000203166002900480156113ee5780601f106113c3576101008083540402835291602001916113ee565b820191906000526020600020905b8154815290600101906020018083116113d157829003601f168201915b5050505050905090565b6000600880549050905090565b61140f33826121a2565b151561141a57600080fd5b611425838383612237565b505050565b611469828260006040519080825280601f01601f1916602001820160405280156114635781602001600182028038833980820191505090505b506114e4565b5050565b600061147883611689565b8210151561148557600080fd5b600660008473ffffffffffffffffffffffffffffffffffffffff1673ffffffffffffffffffffffffffffffffffffffff168152602001908152602001600020828154811015156114d157fe5b9060005260206000200154905092915050565b505050565b6000601560009054906101000a900473ffffffffffffffffffffffffffffffffffffffff1673ffffffffffffffffffffffffffffffffffffffff163373ffffffffffffffffffffffffffffffffffffffff161415156115d6576040517f08c379a00000000000000000000000000000000000000000000000000000000081526004018080602001828103825260238152602001807f6f6e6c79206f776e65722063616e207573652074686973207472616e7361637481526020017f696f6e000000000000000000000000000000000000000000000000000000000081525060400191505060405180910390fd5b6115e0838361225b565b6115e98261227c565b6001905092915050565b61160f838383602060405190810160405280600081525061183e565b505050565b600061161e6113f8565b8210151561162b57600080fd5b60088281548110151561163a57fe5b90600052602060002001549050919050565b60006002600083815260200190815260200160002060009054906101000a900473ffffffffffffffffffffffffffffffffffffffff169050919050565b60006116d2600460008473ffffffffffffffffffffffffffffffffffffffff1673ffffffffffffffffffffffffffffffffffffffff1681526020019081526020016000206123cf565b9050919050565b60008060009054906101000a900473ffffffffffffffffffffffffffffffffffffffff16905090565b3373ffffffffffffffffffffffffffffffffffffffff168273ffffffffffffffffffffffffffffffffffffffff161415151561173d57600080fd5b80600560003373ffffffffffffffffffffffffffffffffffffffff1673ffffffffffffffffffffffffffffffffffffffff16815260200190815260200160002060008473ffffffffffffffffffffffffffffffffffffffff1673ffffffffffffffffffffffffffffffffffffffff16815260200190815260200160002060006101000a81548160ff0219169083151502179055508173ffffffffffffffffffffffffffffffffffffffff163373ffffffffffffffffffffffffffffffffffffffff167f17307eab39ab6107e8899845ad3d59bd9653f200f220920489ca2b5937696c3183604051808215151515815260200191505060405180910390a35050565b611849848484611405565b611855848484846123dd565b151561186057600080fd5b50505050565b606060118054600181600116156101000203166002900480601f0160208091040260200160405190810160405280929190818152602001828054600181600116156101000203166002900480156118fe5780601f106118d3576101008083540402835291602001916118fe565b820191906000526020600020905b8154815290600101906020018083116118e157829003601f168201915b5050505050905090565b606061191382612600565b151561191e57600080fd5b601260008381526020019081526020016000208054600181600116156101000203166002900480601f0160208091040260200160405190810160405280929190818152602001828054600181600116156101000203166002900480156119c55780601f1061199a576101008083540402835291602001916119c5565b820191906000526020600020905b8154815290600101906020018083116119a857829003601f168201915b50505050509050919050565b601560009054906101000a900473ffffffffffffffffffffffffffffffffffffffff1673ffffffffffffffffffffffffffffffffffffffff163373ffffffffffffffffffffffffffffffffffffffff16141515611abc576040517f08c379a00000000000000000000000000000000000000000000000000000000081526004018080602001828103825260238152602001807f6f6e6c79206f776e65722063616e207573652074686973207472616e7361637481526020017f696f6e000000000000000000000000000000000000000000000000000000000081525060400191505060405180910390fd5b60008a8c604051602001808381526020018273ffffffffffffffffffffffffffffffffffffffff1673ffffffffffffffffffffffffffffffffffffffff166c0100000000000000000000000002815260140192505050604051602081830303815290604052805190602001209050600073ffffffffffffffffffffffffffffffffffffffff166017600083815260200190815260200160002060010160009054906101000a900473ffffffffffffffffffffffffffffffffffffffff1673ffffffffffffffffffffffffffffffffffffffff16141515611c04576040517f08c379a000000000000000000000000000000000000000000000000000000000815260040180806020018281038252601e8152602001807f6572726f723a20536f6c7574696f6e20616c726561647920657869737473000081525060200191505060405180910390fd5b601460009054906101000a900473ffffffffffffffffffffffffffffffffffffffff1673ffffffffffffffffffffffffffffffffffffffff1663fe01ff628b8b8b8b8b8b8b8b8b6040518a63ffffffff167c0100000000000000000000000000000000000000000000000000000000028152600401808a600260200280828437600081840152601f19601f82011690508083019250505089600260200280828437600081840152601f19601f82011690508083019250505088600260400280828437600081840152601f19601f82011690508083019250505087600260200280828437600081840152601f19601f82011690508083019250505086600260200280828437600081840152601f19601f82011690508083019250505085600260200280828437600081840152601f19601f82011690508083019250505084600260200280828437600081840152601f19601f82011690508083019250505083600260200280828437600081840152601f19601f82011690508083019250505082600260200280828437600081840152601f19601f8201169050808301925050509950505050505050505050602060405180830381600087803b158015611dc857600080fd5b505af1158015611ddc573d6000803e3d6000fd5b505050506040513d6020811015611df257600080fd5b81019080805190602001909291905050501515611e77576040517f08c379a00000000000000000000000000000000000000000000000000000000081526004018080602001828103825260208152602001807f6572726f723a207a6f6b72617465732070726f6f6620697320696e76616c696481525060200191505060405180910390fd5b611e818c8c6114e9565b50611e8c8b8d612672565b505050505050505050505050565b6000600560008473ffffffffffffffffffffffffffffffffffffffff1673ffffffffffffffffffffffffffffffffffffffff16815260200190815260200160002060008373ffffffffffffffffffffffffffffffffffffffff1673ffffffffffffffffffffffffffffffffffffffff16815260200190815260200160002060009054906101000a900460ff16905092915050565b601560009054906101000a900473ffffffffffffffffffffffffffffffffffffffff1673ffffffffffffffffffffffffffffffffffffffff163373ffffffffffffffffffffffffffffffffffffffff16141515612019576040517f08c379a00000000000000000000000000000000000000000000000000000000081526004018080602001828103825260238152602001807f6f6e6c79206f776e65722063616e207573652074686973207472616e7361637481526020017f696f6e000000000000000000000000000000000000000000000000000000000081525060400191505060405180910390fd5b600073ffffffffffffffffffffffffffffffffffffffff168173ffffffffffffffffffffffffffffffffffffffff16141515156120e4576040517f08c379a00000000000000000000000000000000000000000000000000000000081526004018080602001828103825260228152602001807f6e6577206f776e6572206973206e6f742074686520726967687420616464726581526020017f737300000000000000000000000000000000000000000000000000000000000081525060400191505060405180910390fd5b806000806101000a81548173ffffffffffffffffffffffffffffffffffffffff021916908373ffffffffffffffffffffffffffffffffffffffff1602179055508073ffffffffffffffffffffffffffffffffffffffff166000809054906101000a900473ffffffffffffffffffffffffffffffffffffffff1673ffffffffffffffffffffffffffffffffffffffff167f7699c77f2404f9b6bbd003861bb4af8ae70b205e19e73d7ec7fe4590db59a6b760405160405180910390a350565b6000806121ae8361164c565b90508073ffffffffffffffffffffffffffffffffffffffff168473ffffffffffffffffffffffffffffffffffffffff16148061221d57508373ffffffffffffffffffffffffffffffffffffffff166122058461103a565b73ffffffffffffffffffffffffffffffffffffffff16145b8061222e575061222d8185611e9a565b5b91505092915050565b612242838383612870565b61224c8382612b09565b6122568282612cad565b505050565b6122658282612d74565b61226f8282612cad565b61227881612f90565b5050565b61228581612600565b15156122f9576040517f08c379a00000000000000000000000000000000000000000000000000000000081526004018080602001828103825260148152602001807f746f6b656e20646f6573206e6f7420657869737400000000000000000000000081525060200191505060405180910390fd5b6123a560118054600181600116156101000203166002900480601f0160208091040260200160405190810160405280929190818152602001828054600181600116156101000203166002900480156123925780601f1061236757610100808354040283529160200191612392565b820191906000526020600020905b81548152906001019060200180831161237557829003601f168201915b50505050506123a083612fdc565b613135565b6012600083815260200190815260200160002090805190602001906123cb9291906137e8565b5050565b600081600001549050919050565b60006123fe8473ffffffffffffffffffffffffffffffffffffffff1661317c565b151561240d57600190506125f8565b60008473ffffffffffffffffffffffffffffffffffffffff1663150b7a02338887876040518563ffffffff167c0100000000000000000000000000000000000000000000000000000000028152600401808573ffffffffffffffffffffffffffffffffffffffff1673ffffffffffffffffffffffffffffffffffffffff1681526020018473ffffffffffffffffffffffffffffffffffffffff1673ffffffffffffffffffffffffffffffffffffffff16815260200183815260200180602001828103825283818151815260200191508051906020019080838360005b838110156125045780820151818401526020810190506124e9565b50505050905090810190601f1680156125315780820380516001836020036101000a031916815260200191505b5095505050505050602060405180830381600087803b15801561255357600080fd5b505af1158015612567573d6000803e3d6000fd5b505050506040513d602081101561257d57600080fd5b8101908080519060200190929190505050905063150b7a027c0100000000000000000000000000000000000000000000000000000000027bffffffffffffffffffffffffffffffffffffffffffffffffffffffff1916817bffffffffffffffffffffffffffffffffffffffffffffffffffffffff1916149150505b949350505050565b6000806002600084815260200190815260200160002060009054906101000a900473ffffffffffffffffffffffffffffffffffffffff169050600073ffffffffffffffffffffffffffffffffffffffff168173ffffffffffffffffffffffffffffffffffffffff161415915050919050565b60008282604051602001808381526020018273ffffffffffffffffffffffffffffffffffffffff1673ffffffffffffffffffffffffffffffffffffffff166c01000000000000000000000000028152601401925050506040516020818303038152906040528051906020012090506126e8613868565b60408051908101604052808581526020018473ffffffffffffffffffffffffffffffffffffffff168152509050601681908060018154018082558091505090600182039060005260206000209060020201600090919290919091506000820151816000015560208201518160010160006101000a81548173ffffffffffffffffffffffffffffffffffffffff021916908373ffffffffffffffffffffffffffffffffffffffff16021790555050505080601760008481526020019081526020016000206000820151816000015560208201518160010160006101000a81548173ffffffffffffffffffffffffffffffffffffffff021916908373ffffffffffffffffffffffffffffffffffffffff1602179055509050507f62c6d8620a920840a8f50eee26fcf200a2398ec6c7d89da1fd52cd92b58d4cdd8484604051808381526020018273ffffffffffffffffffffffffffffffffffffffff1673ffffffffffffffffffffffffffffffffffffffff1681526020019250505060405180910390a150505050565b6128798161164c565b73ffffffffffffffffffffffffffffffffffffffff168373ffffffffffffffffffffffffffffffffffffffff1614151561291b576040517f08c379a00000000000000000000000000000000000000000000000000000000081526004018080602001828103825260138152602001807f6e6f742074686520746f6b656e206f776e65720000000000000000000000000081525060200191505060405180910390fd5b600073ffffffffffffffffffffffffffffffffffffffff168273ffffffffffffffffffffffffffffffffffffffff16141515156129c0576040517f08c379a00000000000000000000000000000000000000000000000000000000081526004018080602001828103825260128152602001807f696e76616c696420746f2061646472657373000000000000000000000000000081525060200191505060405180910390fd5b6129c9816131c8565b612a10600460008573ffffffffffffffffffffffffffffffffffffffff1673ffffffffffffffffffffffffffffffffffffffff168152602001908152602001600020613288565b612a57600460008473ffffffffffffffffffffffffffffffffffffffff1673ffffffffffffffffffffffffffffffffffffffff1681526020019081526020016000206132ab565b816002600083815260200190815260200160002060006101000a81548173ffffffffffffffffffffffffffffffffffffffff021916908373ffffffffffffffffffffffffffffffffffffffff160217905550808273ffffffffffffffffffffffffffffffffffffffff168473ffffffffffffffffffffffffffffffffffffffff167fddf252ad1be2c89b69c2b068fc378daa952ba7f163c4a11628f55a4df523b3ef60405160405180910390a4505050565b6000612b616001600660008673ffffffffffffffffffffffffffffffffffffffff1673ffffffffffffffffffffffffffffffffffffffff168152602001908152602001600020805490506132c190919063ffffffff16565b90506000600760008481526020019081526020016000205490508181141515612c54576000600660008673ffffffffffffffffffffffffffffffffffffffff1673ffffffffffffffffffffffffffffffffffffffff16815260200190815260200160002083815481101515612bd257fe5b9060005260206000200154905080600660008773ffffffffffffffffffffffffffffffffffffffff1673ffffffffffffffffffffffffffffffffffffffff16815260200190815260200160002083815481101515612c2c57fe5b9060005260206000200181905550816007600083815260200190815260200160002081905550505b600660008573ffffffffffffffffffffffffffffffffffffffff1673ffffffffffffffffffffffffffffffffffffffff168152602001908152602001600020805480919060019003612ca69190613898565b5050505050565b600660008373ffffffffffffffffffffffffffffffffffffffff1673ffffffffffffffffffffffffffffffffffffffff168152602001908152602001600020805490506007600083815260200190815260200160002081905550600660008373ffffffffffffffffffffffffffffffffffffffff1673ffffffffffffffffffffffffffffffffffffffff1681526020019081526020016000208190806001815401808255809150509060018203906000526020600020016000909192909190915055505050565b612d7d81612600565b151515612df2576040517f08c379a00000000000000000000000000000000000000000000000000000000081526004018080602001828103825260148152602001807f746f6b656e20616c72656164792065786973747300000000000000000000000081525060200191505060405180910390fd5b600073ffffffffffffffffffffffffffffffffffffffff168273ffffffffffffffffffffffffffffffffffffffff1614151515612e97576040517f08c379a00000000000000000000000000000000000000000000000000000000081526004018080602001828103825260158152602001807f696e76616c696420746f6b656e2061646472657373000000000000000000000081525060200191505060405180910390fd5b816002600083815260200190815260200160002060006101000a81548173ffffffffffffffffffffffffffffffffffffffff021916908373ffffffffffffffffffffffffffffffffffffffff160217905550612f30600460008473ffffffffffffffffffffffffffffffffffffffff1673ffffffffffffffffffffffffffffffffffffffff1681526020019081526020016000206132ab565b808273ffffffffffffffffffffffffffffffffffffffff16600073ffffffffffffffffffffffffffffffffffffffff167fddf252ad1be2c89b69c2b068fc378daa952ba7f163c4a11628f55a4df523b3ef60405160405180910390a45050565b6008805490506009600083815260200190815260200160002081905550600881908060018154018082558091505090600182039060005260206000200160009091929091909150555050565b60606000821415613024576040805190810160405280600181526020017f30000000000000000000000000000000000000000000000000000000000000008152509050613130565b600082905060005b600082141515613052578080600101915050600a8281151561304a57fe5b04915061302c565b6060816040519080825280601f01601f1916602001820160405280156130875781602001600182028038833980820191505090505b50905060006001830390505b60008614151561312857600a868115156130a957fe5b066030017f0100000000000000000000000000000000000000000000000000000000000000028282806001900393508151811015156130e457fe5b9060200101907effffffffffffffffffffffffffffffffffffffffffffffffffffffffffffff1916908160001a905350600a8681151561312057fe5b049550613093565b819450505050505b919050565b6060613174838360206040519081016040528060008152506020604051908101604052806000815250602060405190810160405280600081525061330b565b905092915050565b60008060007fc5d2460186f7233c927e7db2dcc703c0e500b653ca82273b7bfad8045d85a4706001029050833f91508082141580156131bf575060006001028214155b92505050919050565b600073ffffffffffffffffffffffffffffffffffffffff166003600083815260200190815260200160002060009054906101000a900473ffffffffffffffffffffffffffffffffffffffff1673ffffffffffffffffffffffffffffffffffffffff161415156132855760006003600083815260200190815260200160002060006101000a81548173ffffffffffffffffffffffffffffffffffffffff021916908373ffffffffffffffffffffffffffffffffffffffff1602179055505b50565b6132a0600182600001546132c190919063ffffffff16565b816000018190555050565b6001816000016000828254019250508190555050565b600061330383836040805190810160405280601e81526020017f536166654d6174683a207375627472616374696f6e206f766572666c6f770000815250613726565b905092915050565b6060808690506060869050606086905060608690506060869050606081518351855187518951010101016040519080825280601f01601f1916602001820160405280156133675781602001600182028038833980820191505090505b509050606081905060008090506000809050600090505b885181101561343157888181518110151561339557fe5b9060200101517f010000000000000000000000000000000000000000000000000000000000000090047f01000000000000000000000000000000000000000000000000000000000000000283838060010194508151811015156133f457fe5b9060200101907effffffffffffffffffffffffffffffffffffffffffffffffffffffffffffff1916908160001a905350808060010191505061337e565b600090505b87518110156134e957878181518110151561344d57fe5b9060200101517f010000000000000000000000000000000000000000000000000000000000000090047f01000000000000000000000000000000000000000000000000000000000000000283838060010194508151811015156134ac57fe5b9060200101907effffffffffffffffffffffffffffffffffffffffffffffffffffffffffffff1916908160001a9053508080600101915050613436565b600090505b86518110156135a157868181518110151561350557fe5b9060200101517f010000000000000000000000000000000000000000000000000000000000000090047f010000000000000000000000000000000000000000000000000000000000000002838380600101945081518110151561356457fe5b9060200101907effffffffffffffffffffffffffffffffffffffffffffffffffffffffffffff1916908160001a90535080806001019150506134ee565b600090505b85518110156136595785818151811015156135bd57fe5b9060200101517f010000000000000000000000000000000000000000000000000000000000000090047f010000000000000000000000000000000000000000000000000000000000000002838380600101945081518110151561361c57fe5b9060200101907effffffffffffffffffffffffffffffffffffffffffffffffffffffffffffff1916908160001a90535080806001019150506135a6565b600090505b845181101561371157848181518110151561367557fe5b9060200101517f010000000000000000000000000000000000000000000000000000000000000090047f01000000000000000000000000000000000000000000000000000000000000000283838060010194508151811015156136d457fe5b9060200101907effffffffffffffffffffffffffffffffffffffffffffffffffffffffffffff1916908160001a905350808060010191505061365e565b82995050505050505050505095945050505050565b600083831115829015156137d5576040517f08c379a00000000000000000000000000000000000000000000000000000000081526004018080602001828103825283818151815260200191508051906020019080838360005b8381101561379a57808201518184015260208101905061377f565b50505050905090810190601f1680156137c75780820380516001836020036101000a031916815260200191505b509250505060405180910390fd5b5060008385039050809150509392505050565b828054600181600116156101000203166002900490600052602060002090601f016020900481019282601f1061382957805160ff1916838001178555613857565b82800160010185558215613857579182015b8281111561385657825182559160200191906001019061383b565b5b50905061386491906138c4565b5090565b604080519081016040528060008152602001600073ffffffffffffffffffffffffffffffffffffffff1681525090565b8154818355818111156138bf578183600052602060002091820191016138be91906138c4565b5b505050565b6138e691905b808211156138e25760008160009055506001016138ca565b5090565b9056fea165627a7a7230582000d2bb2cb0d589223cd47e6e423d01ee8d9daa01627ca693b18d66e6fbfb9da90029608060405234801561001057600080fd5b5061194d806100206000396000f3fe60806040526004361061003b576000357c010000000000000000000000000000000000000000000000000000000090048063fe01ff6214610040575b600080fd5b34801561004c57600080fd5b506102f1600480360361028081101561006457600080fd5b8101908080604001906002806020026040519081016040528092919082600260200280828437600081840152601f19601f820116905080830192505050505050919291929080604001906002806020026040519081016040528092919082600260200280828437600081840152601f19601f82011690508083019250505050505091929192908060800190600280602002604051908101604052809291906000905b8282101561015a578382604002016002806020026040519081016040528092919082600260200280828437600081840152601f19601f82011690508083019250505050505081526020019060010190610106565b50505050919291929080604001906002806020026040519081016040528092919082600260200280828437600081840152601f19601f820116905080830192505050505050919291929080604001906002806020026040519081016040528092919082600260200280828437600081840152601f19601f820116905080830192505050505050919291929080604001906002806020026040519081016040528092919082600260200280828437600081840152601f19601f820116905080830192505050505050919291929080604001906002806020026040519081016040528092919082600260200280828437600081840152601f19601f820116905080830192505050505050919291929080604001906002806020026040519081016040528092919082600260200280828437600081840152601f19601f820116905080830192505050505050919291929080604001906002806020026040519081016040528092919082600260200280828437600081840152601f19601f820116905080830192505050505050919291929050505061030b565b604051808215151515815260200191505060405180910390f35b600061031561172e565b60408051908101604052808c600060028110151561032f57fe5b602002015181526020018c600160028110151561034857fe5b6020020151815250816000018190525060408051908101604052808b600060028110151561037257fe5b602002015181526020018b600160028110151561038b57fe5b60200201518152508160200181905250604080519081016040528060408051908101604052808c60006002811015156103c057fe5b602002015160006002811015156103d357fe5b602002015181526020018c60006002811015156103ec57fe5b602002015160016002811015156103ff57fe5b6020020151815250815260200160408051908101604052808c600160028110151561042657fe5b6020020151600060028110151561043957fe5b602002015181526020018c600160028110151561045257fe5b6020020151600160028110151561046557fe5b60200201518152508152508160400181905250604080519081016040528089600060028110151561049257fe5b602002015181526020018960016002811015156104ab57fe5b6020020151815250816060018190525060408051908101604052808860006002811015156104d557fe5b602002015181526020018860016002811015156104ee57fe5b60200201518152508160800181905250604080519081016040528087600060028110151561051857fe5b6020020151815260200187600160028110151561053157fe5b60200201518152508160a00181905250604080519081016040528086600060028110151561055b57fe5b6020020151815260200186600160028110151561057457fe5b60200201518152508160e00181905250604080519081016040528085600060028110151561059e57fe5b602002015181526020018560016002811015156105b757fe5b60200201518152508160c00181905250606060026040519080825280602002602001820160405280156105f95781602001602082028038833980820191505090505b50905060008090505b600281101561064757848160028110151561061957fe5b6020020151828281518110151561062c57fe5b90602001906020020181815250508080600101915050610602565b5060006106548284610707565b14156106f3577f3f3cfdb26fb5f9f1786ab4f1a1f9cd4c0b5e726cbdfc26e495261731aad44e396040518080602001828103825260228152602001807f5472616e73616374696f6e207375636365737366756c6c79207665726966696581526020017f642e00000000000000000000000000000000000000000000000000000000000081525060400191505060405180910390a16001925050506106fa565b6000925050505b9998505050505050505050565b60006107116117a4565b610719610947565b90508060e0015151600185510114151561073257600080fd5b61073a611814565b6040805190810160405280600081526020016000815250905060008090505b85518110156107b9576107aa826107a58560e001516001850181518110151561077e57fe5b90602001906020020151898581518110151561079657fe5b90602001906020020151610f88565b611024565b91508080600101915050610759565b506107e0818360e0015160008151811015156107d157fe5b90602001906020020151611024565b9050610809846000015183600001516107fc87602001516110e1565b61080461117d565b611247565b151561081a57600192505050610941565b6108418260200151856040015161083487606001516110e1565b61083c61117d565b611247565b151561085257600292505050610941565b6108798460800151836040015161086c8760a001516110e1565b61087461117d565b611247565b151561088a57600392505050610941565b6108d68460c0015183606001516108ba6108b5856108b08a600001518b60800151611024565b611024565b6110e1565b8560a001516108cc87608001516110e1565b8960400151611353565b15156108e757600492505050610941565b6109296108f8828660000151611024565b856040015161090a8760e001516110e1565b8560c0015161091c89608001516110e1565b61092461117d565b611353565b151561093a57600592505050610941565b6000925050505b92915050565b61094f6117a4565b604080519081016040528060408051908101604052807f2e7ba23f226427851aaba9059e18af11e9453ec66489371ebd1ff61d470af59b81526020017f29f3c43117c062d054e696e157131cbaa21a32dd03b021f1531635ecea432b9a815250815260200160408051908101604052807f13023d7d9051daa1cda9d3088e0c7b9f5b21e810634ed89efe8e7b2ddb75440281526020017f1ce15bbf4d04ba87aaafb0272d19899f41e8b9cae55bb89cc6cdb7d92e5cc7ab815250815250816000018190525060408051908101604052807f0a765f4ad5210e93432e429e3587100ca2b871e084aa63135a1af9937178cbc781526020017f274336efb9456dfadbf49088d7195f2b4f4e88494cfb7eedbf9bee4308f8b34c8152508160200181905250604080519081016040528060408051908101604052807f0822b1848cf4af328f1ab039df6015a2fe8432f50732553163de1ebf563d53da81526020017f0cfd2bfaeaa0096d2a8fdfc8e2d22876743f69a7f15ad6dab6643320f3ab3b78815250815260200160408051908101604052807f02253f4925bc7f47c48d06ed66f0dd2c460bb94c698e491c85045c189c3406bc81526020017f12128688eba154c39e208eb00f67f28270f5f3733f5a03ea205b2026a9db4f5d8152508152508160400181905250604080519081016040528060408051908101604052807f022963a949aa4f1f34ee19d50102d3797ca6243c1037b92f5244e0d652e94a2281526020017f2ffa7d5966fbf91d8b498a4da9eb6abcc45025b922745560bc0eed0e0e694dfb815250815260200160408051908101604052807f211d044aae9a5faa58f5099aa6034fc9335d339964612475924e879c16ddf25b81526020017f020aa5be631df3b2a4cb72516cdc93cf1bd5b9253a84b86c3d10c8951ddeacaa815250815250816060018190525060408051908101604052807f2d1e9f1e41c2d2ee10fc77298c41792ae1be3183f2d6734bba225a076092871c81526020017f097cf2c0d4926bbf4df818483e0dec108ef6d04502d1755081a3a5c70504b59a8152508160800181905250604080519081016040528060408051908101604052807f141beb07915511033b39b7f01e153cc30bc0aa4c26a0450e70ec7a420f99e23581526020017f0c16e2bf3a8b8a1c5a0f6b39e3ca2234fb7fcdd7aca50741a8dcb536b39cadb6815250815260200160408051908101604052807f1948e208a1566bd21b3e653037c2013ba1ee914b74ecdeb6e60f40907c42cd5581526020017f1544b8e4267e5189a970cd6dfb5c4149f05642361b24a585e95c9e8a89a202218152508152508160a00181905250604080519081016040528060408051908101604052807f06cc1ab5f97deedff0a29f7b4d6b324c53554f5de4c688c0c5efb98723191f5281526020017f2071eae284b9b499ed30af8f20f42908ac905a4f3f1089a572a11756161a3436815250815260200160408051908101604052807f1c5ccb5b2b7470e3a34a66b395bdb58fd6a34057f11d4a1d15f9759e207ecddb81526020017f126947cf3153d83a928bb8a07cf2725c143562771a4f03a7831cba2c631d11558152508152508160c001819052506003604051908082528060200260200182016040528015610e1d57816020015b610e0a61182e565b815260200190600190039081610e025790505b508160e0018190525060408051908101604052807f18f4dd998b799d95e9719ba63f0a2e44cc72816015759c50db3ee2f43e20bc8581526020017f1fb0676234be23573b88f7a1a167597e1cbf28b5d2c9921908eeadf9abfa09d48152508160e001516000815181101515610e8e57fe5b9060200190602002018190525060408051908101604052807f023976b628fe1a420c2c71f3fa4a3378163042e2649a88d7b1e0bedbc9b45ff081526020017f0d4d7125a1d50bd0325bf1742e68a34e25fa7f620a6d48a8add9e330c6d4b46e8152508160e001516001815181101515610f0357fe5b9060200190602002018190525060408051908101604052807f04932bc5aa6b3850108968016d8d8d70601bb482e4a62c874ac4494209c08cd181526020017f1bc76f58a8fe69f6dfb70a589f36656c96e24f9b4d25c5540293647b96858ee08152508160e001516002815181101515610f7857fe5b9060200190602002018190525090565b610f90611814565b610f98611848565b8360000151816000600381101515610fac57fe5b6020020181815250508360200151816001600381101515610fc957fe5b60200201818152505082816002600381101515610fe257fe5b6020020181815250506000606083608084600060076107d05a03f19050806000811461100d5761100f565bfe5b5080151561101c57600080fd5b505092915050565b61102c611814565b61103461186b565b836000015181600060048110151561104857fe5b602002018181525050836020015181600160048110151561106557fe5b602002018181525050826000015181600260048110151561108257fe5b602002018181525050826020015181600360048110151561109f57fe5b602002018181525050600060608360c084600060066107d05a03f1905080600081146110ca576110cc565bfe5b508015156110d957600080fd5b505092915050565b6110e9611814565b60007f30644e72e131a029b85045b68181585d97816a916871ca8d3c208c16d87cfd47905060008360000151148015611126575060008360200151145b1561114a576040805190810160405280600081526020016000815250915050611178565b60408051908101604052808460000151815260200182856020015181151561116e57fe5b0683038152509150505b919050565b61118561188e565b604080519081016040528060408051908101604052807f198e9393920d483a7260bfb731fb5d25f1aa493335a9e71297e485b7aef312c281526020017f1800deef121f1e76426a00665e5c4479674322d4f75edadd46debd5cd992f6ed815250815260200160408051908101604052807f090689d0585ff075ec9e99ad690c3395bc4b313370b38ef355acdadcd122975b81526020017f12c85ea5db8c6deb4aab71808dcb408fe3d1e7690c43d37b4ce6cc0166fa7daa815250815250905090565b60006060600260405190808252806020026020018201604052801561128657816020015b61127361182e565b81526020019060019003908161126b5790505b509050606060026040519080825280602002602001820160405280156112c657816020015b6112b36118b5565b8152602001906001900390816112ab5790505b509050868260008151811015156112d957fe5b90602001906020020181905250848260018151811015156112f657fe5b906020019060200201819052508581600081518110151561131357fe5b906020019060200201819052508381600181518110151561133057fe5b90602001906020020181905250611347828261149b565b92505050949350505050565b60006060600360405190808252806020026020018201604052801561139257816020015b61137f61182e565b8152602001906001900390816113775790505b509050606060036040519080825280602002602001820160405280156113d257816020015b6113bf6118b5565b8152602001906001900390816113b75790505b509050888260008151811015156113e557fe5b906020019060200201819052508682600181518110151561140257fe5b906020019060200201819052508482600281518110151561141f57fe5b906020019060200201819052508781600081518110151561143c57fe5b906020019060200201819052508581600181518110151561145957fe5b906020019060200201819052508381600281518110151561147657fe5b9060200190602002018190525061148d828261149b565b925050509695505050505050565b6000815183511415156114ad57600080fd5b60008351905060006006820290506060816040519080825280602002602001820160405280156114ec5781602001602082028038833980820191505090505b50905060008090505b838110156116ca57868181518110151561150b57fe5b9060200190602002015160000151826000600684020181518110151561152d57fe5b9060200190602002018181525050868181518110151561154957fe5b9060200190602002015160200151826001600684020181518110151561156b57fe5b9060200190602002018181525050858181518110151561158757fe5b906020019060200201516000015160006002811015156115a357fe5b602002015182600260068402018151811015156115bc57fe5b906020019060200201818152505085818151811015156115d857fe5b906020019060200201516000015160016002811015156115f457fe5b6020020151826003600684020181518110151561160d57fe5b9060200190602002018181525050858181518110151561162957fe5b9060200190602002015160200151600060028110151561164557fe5b6020020151826004600684020181518110151561165e57fe5b9060200190602002018181525050858181518110151561167a57fe5b9060200190602002015160200151600160028110151561169657fe5b602002015182600560068402018151811015156116af57fe5b906020019060200201818152505080806001019150506114f5565b506116d36118dc565b60006020826020860260208601600060086107d05a03f1905080600081146116fa576116fc565bfe5b5080151561170957600080fd5b600082600060018110151561171a57fe5b602002015114159550505050505092915050565b6102406040519081016040528061174361182e565b815260200161175061182e565b815260200161175d6118b5565b815260200161176a61182e565b815260200161177761182e565b815260200161178461182e565b815260200161179161182e565b815260200161179e61182e565b81525090565b610320604051908101604052806117b96118b5565b81526020016117c661182e565b81526020016117d36118b5565b81526020016117e06118b5565b81526020016117ed61182e565b81526020016117fa6118b5565b81526020016118076118b5565b8152602001606081525090565b604080519081016040528060008152602001600081525090565b604080519081016040528060008152602001600081525090565b606060405190810160405280600390602082028038833980820191505090505090565b608060405190810160405280600490602082028038833980820191505090505090565b6080604051908101604052806118a26118ff565b81526020016118af6118ff565b81525090565b6080604051908101604052806118c96118ff565b81526020016118d66118ff565b81525090565b602060405190810160405280600190602082028038833980820191505090505090565b604080519081016040528060029060208202803883398082019150509050509056fea165627a7a7230582008aa4435e11755e8a289169aa2bcb05db52f598f0b910cccf9c015ba5efc9ff50029",
  "source": "pragma solidity >=0.4.21 <0.6.0;\n\nimport './ERC721Mintable.sol';\nimport './Verifier.sol';\n\ncontract SolnSquareVerifier is ERC721MintableComplete {\n// TODO define a contract call to the zokrates generated solidity contract <Verifier> or <renamedVerifier>\n// TODO define another contract named SolnSquareVerifier that inherits from your ERC721Mintable class\n\n    Verifier verifier;\n    address private contractOwner;\n\n// TODO define a solutions struct that can hold an index & an address\n    struct Solution {\n        uint256 index;\n        address client;\n    }\n\n// TODO define an array of the above struct\n    Solution[] private solutions;\n\n// TODO define a mapping to store unique solutions submitted\n    mapping (bytes32 => Solution) uniqueSolution;\n\n// TODO Create an event to emit when a solution is added\n    event AddSolution(uint256 index, address client);\n\n    constructor(string memory name, string memory symbol) public\n        ERC721MintableComplete(name, symbol) {\n            contractOwner = msg.sender;\n            verifier = new Verifier();\n        }\n\n    modifier onlyOwner() {\n        require(msg.sender == contractOwner, \"only owner can use this transaction\");\n        _;\n    }\n\n// TODO Create a function to add the solutions to the array and emit the event\n\n    function addSolution(uint256 index, address client) internal {\n        bytes32 key = keccak256(abi.encodePacked(index, client));\n        \n        Solution memory solution = Solution({\n            index: index,\n            client: client\n        });\n\n        solutions.push(solution);\n\n        uniqueSolution[key] = solution;\n        emit AddSolution(index, client);\n    }\n    // added up to here.... ramkumar rani\n\n// TODO Create a function to mint new NFT only after the solution has been verified\n//  - make sure the solution is unique (has not been used before)\n//  - make sure you handle metadata as well as tokenSupply\n    function mintNewNFT(\n        address to,\n        uint256 tokenId,\n        uint[2] calldata a,\n        uint[2] calldata a_p,\n        uint[2][2] calldata  b,\n        uint[2] calldata b_p,\n        uint[2] calldata c,\n        uint[2] calldata c_p,\n        uint[2] calldata h,\n        uint[2] calldata k,\n        uint[2] calldata input\n    ) external onlyOwner {\n        bytes32 key = keccak256(abi.encodePacked(tokenId, to));\n\n        require(uniqueSolution[key].client ==  address(0), \"error: Solution already exists\");\n        require(verifier.verifyTx(a, a_p, b, b_p, c, c_p, h, k, input), \"error: zokrates proof is invalid\");\n\n        // minting new token\n        super.mint(to, tokenId);\n        // maintain the metadata\n        addSolution(tokenId, to);\n    }\n}",
  "sourcePath": "E:\\blockchain\\udacity\\Desktop\\project5\\eth-contracts\\contracts\\SolnSquareVerifier.sol",
  "compiler": {
    "name": "solc",
    "version": "0.5.1+commit.c8a2cb62.Emscripten.clang"
  },
  "schemaVersion": "3.4.4",
  "updatedAt": "2022-05-07T03:51:00.543Z",
  "networkType": "ethereum",
  "devdoc": {
    "methods": {
      "isApprovedForAll(address,address)": {
        "details": "Tells whether an operator is approved by a given owner",
        "params": {
          "operator": "operator address which you want to query the approval of",
          "owner": "owner address which you want to query the approval of"
        },
        "return": "bool whether the given operator is approved by the given owner"
      },
      "setApprovalForAll(address,bool)": {
        "details": "Sets or unsets the approval of a given operator An operator is allowed to transfer all tokens of the sender on their behalf",
        "params": {
          "approved": "representing the status of the approval to be set",
          "to": "operator address to set the approval"
        }
      },
      "supportsInterface(bytes4)": {
        "details": "implement supportsInterface(bytes4) using a lookup table"
      },
      "tokenByIndex(uint256)": {
        "details": "Gets the token ID at a given index of all the tokens in this contract Reverts if the index is greater or equal to the total number of tokens",
        "params": {
          "index": "uint256 representing the index to be accessed of the tokens list"
        },
        "return": "uint256 token ID at the given index of the tokens list"
      },
      "tokenOfOwnerByIndex(address,uint256)": {
        "details": "Gets the token ID at a given index of the tokens list of the requested owner",
        "params": {
          "index": "uint256 representing the index to be accessed of the requested tokens list",
          "owner": "address owning the tokens list to be accessed"
        },
        "return": "uint256 token ID at the given index of the tokens list owned by the requested address"
      },
      "totalSupply()": {
        "details": "Gets the total amount of tokens stored by the contract",
        "return": "uint256 representing the total amount of tokens"
      }
    }
  },
  "userdoc": {
    "methods": {}
  }
}