{
  "contractName": "Test",
  "abi": [
    {
      "inputs": [
        {
          "name": "_a",
          "type": "uint256"
        }
      ],
      "payable": false,
      "stateMutability": "nonpayable",
      "type": "constructor"
    },
    {
      "constant": true,
      "inputs": [
        {
          "name": "x",
          "type": "uint256"
        },
        {
          "name": "y",
          "type": "uint256"
        }
      ],
      "name": "getA",
      "outputs": [
        {
          "name": "",
          "type": "uint256"
        }
      ],
      "payable": false,
      "stateMutability": "view",
      "type": "function"
    }
  ],
  "bytecode": "0x608060405234801561001057600080fd5b506040516020806101368339810180604052602081101561003057600080fd5b8101908080519060200190929190505050806000819055505060df806100576000396000f3fe6080604052600436106039576000357c01000000000000000000000000000000000000000000000000000000009004806311647e6614603e575b600080fd5b348015604957600080fd5b50607d60048036036040811015605e57600080fd5b8101908080359060200190929190803590602001909291905050506093565b6040518082815260200191505060405180910390f35b600080600054111560a757828203905060ad565b81830390505b9291505056fea165627a7a72305820f3fe9ba3ff88a50fd28c80d622375dfa99eac6f049391cac8c2ef067760818490029",
  "source": "pragma solidity ^0.5.1;\r\n\r\ncontract Test {\r\n    uint a;\r\n\r\n    constructor(uint _a) public {\r\n        a = _a;\r\n    }\r\n\r\n    function getA(uint x, uint y) public view returns(uint) {\r\n        if (a > 0 )\r\n            return y-x;\r\n        else \r\n            return x-y;\r\n    }\r\n}",
  "sourcePath": "E:\\blockchain\\udacity\\Desktop\\project5\\eth-contracts\\contracts\\Test.sol",
  "compiler": {
    "name": "solc",
    "version": "0.5.1+commit.c8a2cb62.Emscripten.clang"
  },
  "schemaVersion": "3.4.4",
  "updatedAt": "2022-05-07T03:49:37.953Z",
  "devdoc": {
    "methods": {}
  },
  "userdoc": {
    "methods": {}
  }
}