{
  "contractName": "StarNotary",
  "abi": [
    {
      "inputs": [],
      "stateMutability": "nonpayable",
      "type": "constructor"
    },
    {
      "anonymous": false,
      "inputs": [
        {
          "indexed": true,
          "internalType": "address",
          "name": "owner",
          "type": "address"
        },
        {
          "indexed": true,
          "internalType": "address",
          "name": "approved",
          "type": "address"
        },
        {
          "indexed": true,
          "internalType": "uint256",
          "name": "tokenId",
          "type": "uint256"
        }
      ],
      "name": "Approval",
      "type": "event"
    },
    {
      "anonymous": false,
      "inputs": [
        {
          "indexed": true,
          "internalType": "address",
          "name": "owner",
          "type": "address"
        },
        {
          "indexed": true,
          "internalType": "address",
          "name": "operator",
          "type": "address"
        },
        {
          "indexed": false,
          "internalType": "bool",
          "name": "approved",
          "type": "bool"
        }
      ],
      "name": "ApprovalForAll",
      "type": "event"
    },
    {
      "anonymous": false,
      "inputs": [
        {
          "indexed": true,
          "internalType": "address",
          "name": "from",
          "type": "address"
        },
        {
          "indexed": true,
          "internalType": "address",
          "name": "to",
          "type": "address"
        },
        {
          "indexed": true,
          "internalType": "uint256",
          "name": "tokenId",
          "type": "uint256"
        }
      ],
      "name": "Transfer",
      "type": "event"
    },
    {
      "inputs": [
        {
          "internalType": "address",
          "name": "to",
          "type": "address"
        },
        {
          "internalType": "uint256",
          "name": "tokenId",
          "type": "uint256"
        }
      ],
      "name": "approve",
      "outputs": [],
      "stateMutability": "nonpayable",
      "type": "function"
    },
    {
      "inputs": [
        {
          "internalType": "address",
          "name": "owner",
          "type": "address"
        }
      ],
      "name": "balanceOf",
      "outputs": [
        {
          "internalType": "uint256",
          "name": "",
          "type": "uint256"
        }
      ],
      "stateMutability": "view",
      "type": "function",
      "constant": true
    },
    {
      "inputs": [
        {
          "internalType": "uint256",
          "name": "tokenId",
          "type": "uint256"
        }
      ],
      "name": "getApproved",
      "outputs": [
        {
          "internalType": "address",
          "name": "",
          "type": "address"
        }
      ],
      "stateMutability": "view",
      "type": "function",
      "constant": true
    },
    {
      "inputs": [
        {
          "internalType": "address",
          "name": "owner",
          "type": "address"
        },
        {
          "internalType": "address",
          "name": "operator",
          "type": "address"
        }
      ],
      "name": "isApprovedForAll",
      "outputs": [
        {
          "internalType": "bool",
          "name": "",
          "type": "bool"
        }
      ],
      "stateMutability": "view",
      "type": "function",
      "constant": true
    },
    {
      "inputs": [],
      "name": "name",
      "outputs": [
        {
          "internalType": "string",
          "name": "",
          "type": "string"
        }
      ],
      "stateMutability": "view",
      "type": "function",
      "constant": true
    },
    {
      "inputs": [
        {
          "internalType": "uint256",
          "name": "tokenId",
          "type": "uint256"
        }
      ],
      "name": "ownerOf",
      "outputs": [
        {
          "internalType": "address",
          "name": "",
          "type": "address"
        }
      ],
      "stateMutability": "view",
      "type": "function",
      "constant": true
    },
    {
      "inputs": [
        {
          "internalType": "address",
          "name": "from",
          "type": "address"
        },
        {
          "internalType": "address",
          "name": "to",
          "type": "address"
        },
        {
          "internalType": "uint256",
          "name": "tokenId",
          "type": "uint256"
        }
      ],
      "name": "safeTransferFrom",
      "outputs": [],
      "stateMutability": "nonpayable",
      "type": "function"
    },
    {
      "inputs": [
        {
          "internalType": "address",
          "name": "from",
          "type": "address"
        },
        {
          "internalType": "address",
          "name": "to",
          "type": "address"
        },
        {
          "internalType": "uint256",
          "name": "tokenId",
          "type": "uint256"
        },
        {
          "internalType": "bytes",
          "name": "_data",
          "type": "bytes"
        }
      ],
      "name": "safeTransferFrom",
      "outputs": [],
      "stateMutability": "nonpayable",
      "type": "function"
    },
    {
      "inputs": [
        {
          "internalType": "address",
          "name": "operator",
          "type": "address"
        },
        {
          "internalType": "bool",
          "name": "approved",
          "type": "bool"
        }
      ],
      "name": "setApprovalForAll",
      "outputs": [],
      "stateMutability": "nonpayable",
      "type": "function"
    },
    {
      "inputs": [],
      "name": "starName",
      "outputs": [
        {
          "internalType": "string",
          "name": "",
          "type": "string"
        }
      ],
      "stateMutability": "view",
      "type": "function",
      "constant": true
    },
    {
      "inputs": [],
      "name": "starSymbol",
      "outputs": [
        {
          "internalType": "string",
          "name": "",
          "type": "string"
        }
      ],
      "stateMutability": "view",
      "type": "function",
      "constant": true
    },
    {
      "inputs": [
        {
          "internalType": "uint256",
          "name": "",
          "type": "uint256"
        }
      ],
      "name": "starsForSale",
      "outputs": [
        {
          "internalType": "uint256",
          "name": "",
          "type": "uint256"
        }
      ],
      "stateMutability": "view",
      "type": "function",
      "constant": true
    },
    {
      "inputs": [
        {
          "internalType": "bytes4",
          "name": "interfaceId",
          "type": "bytes4"
        }
      ],
      "name": "supportsInterface",
      "outputs": [
        {
          "internalType": "bool",
          "name": "",
          "type": "bool"
        }
      ],
      "stateMutability": "view",
      "type": "function",
      "constant": true
    },
    {
      "inputs": [],
      "name": "symbol",
      "outputs": [
        {
          "internalType": "string",
          "name": "",
          "type": "string"
        }
      ],
      "stateMutability": "view",
      "type": "function",
      "constant": true
    },
    {
      "inputs": [
        {
          "internalType": "uint256",
          "name": "",
          "type": "uint256"
        }
      ],
      "name": "tokenIdToStarInfo",
      "outputs": [
        {
          "internalType": "string",
          "name": "name",
          "type": "string"
        }
      ],
      "stateMutability": "view",
      "type": "function",
      "constant": true
    },
    {
      "inputs": [
        {
          "internalType": "uint256",
          "name": "tokenId",
          "type": "uint256"
        }
      ],
      "name": "tokenURI",
      "outputs": [
        {
          "internalType": "string",
          "name": "",
          "type": "string"
        }
      ],
      "stateMutability": "view",
      "type": "function",
      "constant": true
    },
    {
      "inputs": [
        {
          "internalType": "address",
          "name": "from",
          "type": "address"
        },
        {
          "internalType": "address",
          "name": "to",
          "type": "address"
        },
        {
          "internalType": "uint256",
          "name": "tokenId",
          "type": "uint256"
        }
      ],
      "name": "transferFrom",
      "outputs": [],
      "stateMutability": "nonpayable",
      "type": "function"
    },
    {
      "inputs": [
        {
          "internalType": "string",
          "name": "_name",
          "type": "string"
        },
        {
          "internalType": "uint256",
          "name": "_tokenId",
          "type": "uint256"
        }
      ],
      "name": "createStar",
      "outputs": [],
      "stateMutability": "nonpayable",
      "type": "function"
    },
    {
      "inputs": [
        {
          "internalType": "uint256",
          "name": "_tokenId",
          "type": "uint256"
        },
        {
          "internalType": "uint256",
          "name": "_price",
          "type": "uint256"
        }
      ],
      "name": "putStarUpForSale",
      "outputs": [],
      "stateMutability": "nonpayable",
      "type": "function"
    },
    {
      "inputs": [
        {
          "internalType": "uint256",
          "name": "_tokenId",
          "type": "uint256"
        }
      ],
      "name": "buyStar",
      "outputs": [],
      "stateMutability": "payable",
      "type": "function",
      "payable": true
    },
    {
      "inputs": [
        {
          "internalType": "uint256",
          "name": "_tokenId",
          "type": "uint256"
        }
      ],
      "name": "lookUptokenIdToStarInfo",
      "outputs": [
        {
          "internalType": "string",
          "name": "",
          "type": "string"
        }
      ],
      "stateMutability": "view",
      "type": "function",
      "constant": true
    },
    {
      "inputs": [
        {
          "internalType": "uint256",
          "name": "_tokenId1",
          "type": "uint256"
        },
        {
          "internalType": "uint256",
          "name": "_tokenId2",
          "type": "uint256"
        }
      ],
      "name": "exchangeStars",
      "outputs": [],
      "stateMutability": "nonpayable",
      "type": "function"
    },
    {
      "inputs": [
        {
          "internalType": "address",
          "name": "_to1",
          "type": "address"
        },
        {
          "internalType": "uint256",
          "name": "_tokenId",
          "type": "uint256"
        }
      ],
      "name": "transferStar",
      "outputs": [],
      "stateMutability": "nonpayable",
      "type": "function"
    }
  ],
  "bytecode": "0x60806040526040518060400160405280601381526020017f5374617220546f6b656e2050726f6a6563743200000000000000000000000000815250600690805190602001906200005192919062000154565b506040518060400160405280600381526020017f5354320000000000000000000000000000000000000000000000000000000000815250600790805190602001906200009f92919062000154565b50348015620000ad57600080fd5b506040518060400160405280600981526020017f74657374206e616d6500000000000000000000000000000000000000000000008152506040518060400160405280600481526020017f5453544e0000000000000000000000000000000000000000000000000000000081525081600090805190602001906200013292919062000154565b5080600190805190602001906200014b92919062000154565b50505062000269565b828054620001629062000233565b90600052602060002090601f016020900481019282620001865760008555620001d2565b82601f10620001a157805160ff1916838001178555620001d2565b82800160010185558215620001d2579182015b82811115620001d1578251825591602001919060010190620001b4565b5b509050620001e19190620001e5565b5090565b5b8082111562000200576000816000905550600101620001e6565b5090565b7f4e487b7100000000000000000000000000000000000000000000000000000000600052602260045260246000fd5b600060028204905060018216806200024c57607f821691505b6020821081141562000263576200026262000204565b5b50919050565b6133ea80620002796000396000f3fe6080604052600436106101405760003560e01c80636352211e116100b6578063b88d4fde1161006f578063b88d4fde1461046f578063c87b56dd14610498578063d1850739146104d5578063d7830ccb14610500578063e7152a5c1461053d578063e985e9c51461056657610140565b80636352211e1461034d57806370a082311461038a57806388d5896c146103c757806395d89b41146103f25780639697c0a11461041d578063a22cb4651461044657610140565b806315e0afa51161010857806315e0afa5146102505780631967fd981461027957806323b872dd146102b65780632f1c34ef146102df578063316a4361146102fb57806342842e0e1461032457610140565b806301ffc9a7146101455780630564b1301461018257806306fdde03146101bf578063081812fc146101ea578063095ea7b314610227575b600080fd5b34801561015157600080fd5b5061016c60048036038101906101679190611fc8565b6105a3565b6040516101799190612010565b60405180910390f35b34801561018e57600080fd5b506101a960048036038101906101a49190612061565b610685565b6040516101b6919061209d565b60405180910390f35b3480156101cb57600080fd5b506101d461069d565b6040516101e19190612151565b60405180910390f35b3480156101f657600080fd5b50610211600480360381019061020c9190612061565b61072f565b60405161021e91906121b4565b60405180910390f35b34801561023357600080fd5b5061024e600480360381019061024991906121fb565b6107b4565b005b34801561025c57600080fd5b506102776004803603810190610272919061223b565b6108cc565b005b34801561028557600080fd5b506102a0600480360381019061029b9190612061565b6109a6565b6040516102ad9190612151565b60405180910390f35b3480156102c257600080fd5b506102dd60048036038101906102d8919061227b565b610a4c565b005b6102f960048036038101906102f49190612061565b610aac565b005b34801561030757600080fd5b50610322600480360381019061031d919061223b565b610c29565b005b34801561033057600080fd5b5061034b6004803603810190610346919061227b565b610cbb565b005b34801561035957600080fd5b50610374600480360381019061036f9190612061565b610cdb565b60405161038191906121b4565b60405180910390f35b34801561039657600080fd5b506103b160048036038101906103ac91906122ce565b610d8d565b6040516103be919061209d565b60405180910390f35b3480156103d357600080fd5b506103dc610e45565b6040516103e99190612151565b60405180910390f35b3480156103fe57600080fd5b50610407610ed3565b6040516104149190612151565b60405180910390f35b34801561042957600080fd5b50610444600480360381019061043f9190612430565b610f65565b005b34801561045257600080fd5b5061046d600480360381019061046891906124b8565b610fbb565b005b34801561047b57600080fd5b5061049660048036038101906104919190612599565b610fd1565b005b3480156104a457600080fd5b506104bf60048036038101906104ba9190612061565b611033565b6040516104cc9190612151565b60405180910390f35b3480156104e157600080fd5b506104ea6110da565b6040516104f79190612151565b60405180910390f35b34801561050c57600080fd5b5061052760048036038101906105229190612061565b611168565b6040516105349190612151565b60405180910390f35b34801561054957600080fd5b50610564600480360381019061055f91906121fb565b611210565b005b34801561057257600080fd5b5061058d6004803603810190610588919061261c565b61129b565b60405161059a9190612010565b60405180910390f35b60007f80ac58cd000000000000000000000000000000000000000000000000000000007bffffffffffffffffffffffffffffffffffffffffffffffffffffffff1916827bffffffffffffffffffffffffffffffffffffffffffffffffffffffff1916148061066e57507f5b5e139f000000000000000000000000000000000000000000000000000000007bffffffffffffffffffffffffffffffffffffffffffffffffffffffff1916827bffffffffffffffffffffffffffffffffffffffffffffffffffffffff1916145b8061067e575061067d8261132f565b5b9050919050565b60096020528060005260406000206000915090505481565b6060600080546106ac9061268b565b80601f01602080910402602001604051908101604052809291908181526020018280546106d89061268b565b80156107255780601f106106fa57610100808354040283529160200191610725565b820191906000526020600020905b81548152906001019060200180831161070857829003601f168201915b5050505050905090565b600061073a82611399565b610779576040517f08c379a00000000000000000000000000000000000000000000000000000000081526004016107709061272f565b60405180910390fd5b6004600083815260200190815260200160002060009054906101000a900473ffffffffffffffffffffffffffffffffffffffff169050919050565b60006107bf82610cdb565b90508073ffffffffffffffffffffffffffffffffffffffff168373ffffffffffffffffffffffffffffffffffffffff161415610830576040517f08c379a0000000000000000000000000000000000000000000000000000000008152600401610827906127c1565b60405180910390fd5b8073ffffffffffffffffffffffffffffffffffffffff1661084f611405565b73ffffffffffffffffffffffffffffffffffffffff16148061087e575061087d81610878611405565b61129b565b5b6108bd576040517f08c379a00000000000000000000000000000000000000000000000000000000081526004016108b490612853565b60405180910390fd5b6108c7838361140d565b505050565b60006108d783610cdb565b905060006108e483610cdb565b90503373ffffffffffffffffffffffffffffffffffffffff168273ffffffffffffffffffffffffffffffffffffffff16148061094b57503373ffffffffffffffffffffffffffffffffffffffff168173ffffffffffffffffffffffffffffffffffffffff16145b61098a576040517f08c379a0000000000000000000000000000000000000000000000000000000008152600401610981906128e5565b60405180910390fd5b610995828286610a4c565b6109a0818385610a4c565b50505050565b60086020528060005260406000206000915090508060000180546109c99061268b565b80601f01602080910402602001604051908101604052809291908181526020018280546109f59061268b565b8015610a425780601f10610a1757610100808354040283529160200191610a42565b820191906000526020600020905b815481529060010190602001808311610a2557829003601f168201915b5050505050905081565b610a5d610a57611405565b826114c6565b610a9c576040517f08c379a0000000000000000000000000000000000000000000000000000000008152600401610a9390612977565b60405180910390fd5b610aa78383836115a4565b505050565b6000600960008381526020019081526020016000205411610b02576040517f08c379a0000000000000000000000000000000000000000000000000000000008152600401610af9906129e3565b60405180910390fd5b6000600960008381526020019081526020016000205490506000610b2583610cdb565b9050813411610b69576040517f08c379a0000000000000000000000000000000000000000000000000000000008152600401610b6090612a4f565b60405180910390fd5b610b74813385610a4c565b6000610b7f82611800565b90508073ffffffffffffffffffffffffffffffffffffffff166108fc849081150290604051600060405180830381858888f19350505050158015610bc7573d6000803e3d6000fd5b5082341115610c23573373ffffffffffffffffffffffffffffffffffffffff166108fc8434610bf69190612a9e565b9081150290604051600060405180830381858888f19350505050158015610c21573d6000803e3d6000fd5b505b50505050565b3373ffffffffffffffffffffffffffffffffffffffff16610c4983610cdb565b73ffffffffffffffffffffffffffffffffffffffff1614610c9f576040517f08c379a0000000000000000000000000000000000000000000000000000000008152600401610c9690612b44565b60405180910390fd5b8060096000848152602001908152602001600020819055505050565b610cd683838360405180602001604052806000815250610fd1565b505050565b6000806002600084815260200190815260200160002060009054906101000a900473ffffffffffffffffffffffffffffffffffffffff169050600073ffffffffffffffffffffffffffffffffffffffff168173ffffffffffffffffffffffffffffffffffffffff161415610d84576040517f08c379a0000000000000000000000000000000000000000000000000000000008152600401610d7b90612bd6565b60405180910390fd5b80915050919050565b60008073ffffffffffffffffffffffffffffffffffffffff168273ffffffffffffffffffffffffffffffffffffffff161415610dfe576040517f08c379a0000000000000000000000000000000000000000000000000000000008152600401610df590612c68565b60405180910390fd5b600360008373ffffffffffffffffffffffffffffffffffffffff1673ffffffffffffffffffffffffffffffffffffffff168152602001908152602001600020549050919050565b60068054610e529061268b565b80601f0160208091040260200160405190810160405280929190818152602001828054610e7e9061268b565b8015610ecb5780601f10610ea057610100808354040283529160200191610ecb565b820191906000526020600020905b815481529060010190602001808311610eae57829003601f168201915b505050505081565b606060018054610ee29061268b565b80601f0160208091040260200160405190810160405280929190818152602001828054610f0e9061268b565b8015610f5b5780601f10610f3057610100808354040283529160200191610f5b565b820191906000526020600020905b815481529060010190602001808311610f3e57829003601f168201915b5050505050905090565b6000604051806020016040528084815250905080600860008481526020019081526020016000206000820151816000019080519060200190610fa8929190611eb9565b50905050610fb6338361180a565b505050565b610fcd610fc6611405565b83836119d8565b5050565b610fe2610fdc611405565b836114c6565b611021576040517f08c379a000000000000000000000000000000000000000000000000000000000815260040161101890612977565b60405180910390fd5b61102d84848484611b45565b50505050565b606061103e82611399565b61107d576040517f08c379a000000000000000000000000000000000000000000000000000000000815260040161107490612cfa565b60405180910390fd5b6000611087611ba1565b905060008151116110a757604051806020016040528060008152506110d2565b806110b184611bb8565b6040516020016110c2929190612d56565b6040516020818303038152906040525b915050919050565b600780546110e79061268b565b80601f01602080910402602001604051908101604052809291908181526020018280546111139061268b565b80156111605780601f1061113557610100808354040283529160200191611160565b820191906000526020600020905b81548152906001019060200180831161114357829003601f168201915b505050505081565b606060086000838152602001908152602001600020600001805461118b9061268b565b80601f01602080910402602001604051908101604052809291908181526020018280546111b79061268b565b80156112045780601f106111d957610100808354040283529160200191611204565b820191906000526020600020905b8154815290600101906020018083116111e757829003601f168201915b50505050509050919050565b600061121b82610cdb565b90503373ffffffffffffffffffffffffffffffffffffffff168173ffffffffffffffffffffffffffffffffffffffff161461128b576040517f08c379a000000000000000000000000000000000000000000000000000000000815260040161128290612dc6565b60405180910390fd5b611296818484610a4c565b505050565b6000600560008473ffffffffffffffffffffffffffffffffffffffff1673ffffffffffffffffffffffffffffffffffffffff16815260200190815260200160002060008373ffffffffffffffffffffffffffffffffffffffff1673ffffffffffffffffffffffffffffffffffffffff16815260200190815260200160002060009054906101000a900460ff16905092915050565b60007f01ffc9a7000000000000000000000000000000000000000000000000000000007bffffffffffffffffffffffffffffffffffffffffffffffffffffffff1916827bffffffffffffffffffffffffffffffffffffffffffffffffffffffff1916149050919050565b60008073ffffffffffffffffffffffffffffffffffffffff166002600084815260200190815260200160002060009054906101000a900473ffffffffffffffffffffffffffffffffffffffff1673ffffffffffffffffffffffffffffffffffffffff1614159050919050565b600033905090565b816004600083815260200190815260200160002060006101000a81548173ffffffffffffffffffffffffffffffffffffffff021916908373ffffffffffffffffffffffffffffffffffffffff160217905550808273ffffffffffffffffffffffffffffffffffffffff1661148083610cdb565b73ffffffffffffffffffffffffffffffffffffffff167f8c5be1e5ebec7d5bd14f71427d1e84f3dd0314c0f7b2291e5b200ac8c7c3b92560405160405180910390a45050565b60006114d182611399565b611510576040517f08c379a000000000000000000000000000000000000000000000000000000000815260040161150790612e58565b60405180910390fd5b600061151b83610cdb565b90508073ffffffffffffffffffffffffffffffffffffffff168473ffffffffffffffffffffffffffffffffffffffff16148061158a57508373ffffffffffffffffffffffffffffffffffffffff166115728461072f565b73ffffffffffffffffffffffffffffffffffffffff16145b8061159b575061159a818561129b565b5b91505092915050565b8273ffffffffffffffffffffffffffffffffffffffff166115c482610cdb565b73ffffffffffffffffffffffffffffffffffffffff161461161a576040517f08c379a000000000000000000000000000000000000000000000000000000000815260040161161190612eea565b60405180910390fd5b600073ffffffffffffffffffffffffffffffffffffffff168273ffffffffffffffffffffffffffffffffffffffff16141561168a576040517f08c379a000000000000000000000000000000000000000000000000000000000815260040161168190612f7c565b60405180910390fd5b611695838383611d19565b6116a060008261140d565b6001600360008573ffffffffffffffffffffffffffffffffffffffff1673ffffffffffffffffffffffffffffffffffffffff16815260200190815260200160002060008282546116f09190612a9e565b925050819055506001600360008473ffffffffffffffffffffffffffffffffffffffff1673ffffffffffffffffffffffffffffffffffffffff16815260200190815260200160002060008282546117479190612f9c565b92505081905550816002600083815260200190815260200160002060006101000a81548173ffffffffffffffffffffffffffffffffffffffff021916908373ffffffffffffffffffffffffffffffffffffffff160217905550808273ffffffffffffffffffffffffffffffffffffffff168473ffffffffffffffffffffffffffffffffffffffff167fddf252ad1be2c89b69c2b068fc378daa952ba7f163c4a11628f55a4df523b3ef60405160405180910390a4505050565b6000819050919050565b600073ffffffffffffffffffffffffffffffffffffffff168273ffffffffffffffffffffffffffffffffffffffff16141561187a576040517f08c379a00000000000000000000000000000000000000000000000000000000081526004016118719061303e565b60405180910390fd5b61188381611399565b156118c3576040517f08c379a00000000000000000000000000000000000000000000000000000000081526004016118ba906130aa565b60405180910390fd5b6118cf60008383611d19565b6001600360008473ffffffffffffffffffffffffffffffffffffffff1673ffffffffffffffffffffffffffffffffffffffff168152602001908152602001600020600082825461191f9190612f9c565b92505081905550816002600083815260200190815260200160002060006101000a81548173ffffffffffffffffffffffffffffffffffffffff021916908373ffffffffffffffffffffffffffffffffffffffff160217905550808273ffffffffffffffffffffffffffffffffffffffff16600073ffffffffffffffffffffffffffffffffffffffff167fddf252ad1be2c89b69c2b068fc378daa952ba7f163c4a11628f55a4df523b3ef60405160405180910390a45050565b8173ffffffffffffffffffffffffffffffffffffffff168373ffffffffffffffffffffffffffffffffffffffff161415611a47576040517f08c379a0000000000000000000000000000000000000000000000000000000008152600401611a3e90613116565b60405180910390fd5b80600560008573ffffffffffffffffffffffffffffffffffffffff1673ffffffffffffffffffffffffffffffffffffffff16815260200190815260200160002060008473ffffffffffffffffffffffffffffffffffffffff1673ffffffffffffffffffffffffffffffffffffffff16815260200190815260200160002060006101000a81548160ff0219169083151502179055508173ffffffffffffffffffffffffffffffffffffffff168373ffffffffffffffffffffffffffffffffffffffff167f17307eab39ab6107e8899845ad3d59bd9653f200f220920489ca2b5937696c3183604051611b389190612010565b60405180910390a3505050565b611b508484846115a4565b611b5c84848484611d1e565b611b9b576040517f08c379a0000000000000000000000000000000000000000000000000000000008152600401611b92906131a8565b60405180910390fd5b50505050565b606060405180602001604052806000815250905090565b60606000821415611c00576040518060400160405280600181526020017f30000000000000000000000000000000000000000000000000000000000000008152509050611d14565b600082905060005b60008214611c32578080611c1b906131c8565b915050600a82611c2b9190613240565b9150611c08565b60008167ffffffffffffffff811115611c4e57611c4d612305565b5b6040519080825280601f01601f191660200182016040528015611c805781602001600182028036833780820191505090505b5090505b60008514611d0d57600182611c999190612a9e565b9150600a85611ca89190613271565b6030611cb49190612f9c565b60f81b818381518110611cca57611cc96132a2565b5b60200101907effffffffffffffffffffffffffffffffffffffffffffffffffffffffffffff1916908160001a905350600a85611d069190613240565b9450611c84565b8093505050505b919050565b505050565b6000611d3f8473ffffffffffffffffffffffffffffffffffffffff16611ea6565b15611e99578373ffffffffffffffffffffffffffffffffffffffff1663150b7a02611d68611405565b8786866040518563ffffffff1660e01b8152600401611d8a9493929190613326565b6020604051808303816000875af1925050508015611dc657506040513d601f19601f82011682018060405250810190611dc39190613387565b60015b611e49573d8060008114611df6576040519150601f19603f3d011682016040523d82523d6000602084013e611dfb565b606091505b50600081511415611e41576040517f08c379a0000000000000000000000000000000000000000000000000000000008152600401611e38906131a8565b60405180910390fd5b805181602001fd5b63150b7a0260e01b7bffffffffffffffffffffffffffffffffffffffffffffffffffffffff1916817bffffffffffffffffffffffffffffffffffffffffffffffffffffffff191614915050611e9e565b600190505b949350505050565b600080823b905060008111915050919050565b828054611ec59061268b565b90600052602060002090601f016020900481019282611ee75760008555611f2e565b82601f10611f0057805160ff1916838001178555611f2e565b82800160010185558215611f2e579182015b82811115611f2d578251825591602001919060010190611f12565b5b509050611f3b9190611f3f565b5090565b5b80821115611f58576000816000905550600101611f40565b5090565b6000604051905090565b600080fd5b600080fd5b60007fffffffff0000000000000000000000000000000000000000000000000000000082169050919050565b611fa581611f70565b8114611fb057600080fd5b50565b600081359050611fc281611f9c565b92915050565b600060208284031215611fde57611fdd611f66565b5b6000611fec84828501611fb3565b91505092915050565b60008115159050919050565b61200a81611ff5565b82525050565b60006020820190506120256000830184612001565b92915050565b6000819050919050565b61203e8161202b565b811461204957600080fd5b50565b60008135905061205b81612035565b92915050565b60006020828403121561207757612076611f66565b5b60006120858482850161204c565b91505092915050565b6120978161202b565b82525050565b60006020820190506120b2600083018461208e565b92915050565b600081519050919050565b600082825260208201905092915050565b60005b838110156120f25780820151818401526020810190506120d7565b83811115612101576000848401525b50505050565b6000601f19601f8301169050919050565b6000612123826120b8565b61212d81856120c3565b935061213d8185602086016120d4565b61214681612107565b840191505092915050565b6000602082019050818103600083015261216b8184612118565b905092915050565b600073ffffffffffffffffffffffffffffffffffffffff82169050919050565b600061219e82612173565b9050919050565b6121ae81612193565b82525050565b60006020820190506121c960008301846121a5565b92915050565b6121d881612193565b81146121e357600080fd5b50565b6000813590506121f5816121cf565b92915050565b6000806040838503121561221257612211611f66565b5b6000612220858286016121e6565b92505060206122318582860161204c565b9150509250929050565b6000806040838503121561225257612251611f66565b5b60006122608582860161204c565b92505060206122718582860161204c565b9150509250929050565b60008060006060848603121561229457612293611f66565b5b60006122a2868287016121e6565b93505060206122b3868287016121e6565b92505060406122c48682870161204c565b9150509250925092565b6000602082840312156122e4576122e3611f66565b5b60006122f2848285016121e6565b91505092915050565b600080fd5b600080fd5b7f4e487b7100000000000000000000000000000000000000000000000000000000600052604160045260246000fd5b61233d82612107565b810181811067ffffffffffffffff8211171561235c5761235b612305565b5b80604052505050565b600061236f611f5c565b905061237b8282612334565b919050565b600067ffffffffffffffff82111561239b5761239a612305565b5b6123a482612107565b9050602081019050919050565b82818337600083830152505050565b60006123d36123ce84612380565b612365565b9050828152602081018484840111156123ef576123ee612300565b5b6123fa8482856123b1565b509392505050565b600082601f830112612417576124166122fb565b5b81356124278482602086016123c0565b91505092915050565b6000806040838503121561244757612446611f66565b5b600083013567ffffffffffffffff81111561246557612464611f6b565b5b61247185828601612402565b92505060206124828582860161204c565b9150509250929050565b61249581611ff5565b81146124a057600080fd5b50565b6000813590506124b28161248c565b92915050565b600080604083850312156124cf576124ce611f66565b5b60006124dd858286016121e6565b92505060206124ee858286016124a3565b9150509250929050565b600067ffffffffffffffff82111561251357612512612305565b5b61251c82612107565b9050602081019050919050565b600061253c612537846124f8565b612365565b90508281526020810184848401111561255857612557612300565b5b6125638482856123b1565b509392505050565b600082601f8301126125805761257f6122fb565b5b8135612590848260208601612529565b91505092915050565b600080600080608085870312156125b3576125b2611f66565b5b60006125c1878288016121e6565b94505060206125d2878288016121e6565b93505060406125e38782880161204c565b925050606085013567ffffffffffffffff81111561260457612603611f6b565b5b6126108782880161256b565b91505092959194509250565b6000806040838503121561263357612632611f66565b5b6000612641858286016121e6565b9250506020612652858286016121e6565b9150509250929050565b7f4e487b7100000000000000000000000000000000000000000000000000000000600052602260045260246000fd5b600060028204905060018216806126a357607f821691505b602082108114156126b7576126b661265c565b5b50919050565b7f4552433732313a20617070726f76656420717565727920666f72206e6f6e657860008201527f697374656e7420746f6b656e0000000000000000000000000000000000000000602082015250565b6000612719602c836120c3565b9150612724826126bd565b604082019050919050565b600060208201905081810360008301526127488161270c565b9050919050565b7f4552433732313a20617070726f76616c20746f2063757272656e74206f776e6560008201527f7200000000000000000000000000000000000000000000000000000000000000602082015250565b60006127ab6021836120c3565b91506127b68261274f565b604082019050919050565b600060208201905081810360008301526127da8161279e565b9050919050565b7f4552433732313a20617070726f76652063616c6c6572206973206e6f74206f7760008201527f6e6572206e6f7220617070726f76656420666f7220616c6c0000000000000000602082015250565b600061283d6038836120c3565b9150612848826127e1565b604082019050919050565b6000602082019050818103600083015261286c81612830565b9050919050565b7f596f75206d757374206f776e2061207374617220746f2065786368616e67652060008201527f6974000000000000000000000000000000000000000000000000000000000000602082015250565b60006128cf6022836120c3565b91506128da82612873565b604082019050919050565b600060208201905081810360008301526128fe816128c2565b9050919050565b7f4552433732313a207472616e736665722063616c6c6572206973206e6f74206f60008201527f776e6572206e6f7220617070726f766564000000000000000000000000000000602082015250565b60006129616031836120c3565b915061296c82612905565b604082019050919050565b6000602082019050818103600083015261299081612954565b9050919050565b7f74686520737461722073686f756c6420626520757020666f722073616c650000600082015250565b60006129cd601e836120c3565b91506129d882612997565b602082019050919050565b600060208201905081810360008301526129fc816129c0565b9050919050565b7f596f75206e65656420746f206861766520656e6f756768204574686572000000600082015250565b6000612a39601d836120c3565b9150612a4482612a03565b602082019050919050565b60006020820190508181036000830152612a6881612a2c565b9050919050565b7f4e487b7100000000000000000000000000000000000000000000000000000000600052601160045260246000fd5b6000612aa98261202b565b9150612ab48361202b565b925082821015612ac757612ac6612a6f565b5b828203905092915050565b7f4e6f7420616e206f776e657220746f20707574207570207374617220666f722060008201527f73616c6500000000000000000000000000000000000000000000000000000000602082015250565b6000612b2e6024836120c3565b9150612b3982612ad2565b604082019050919050565b60006020820190508181036000830152612b5d81612b21565b9050919050565b7f4552433732313a206f776e657220717565727920666f72206e6f6e657869737460008201527f656e7420746f6b656e0000000000000000000000000000000000000000000000602082015250565b6000612bc06029836120c3565b9150612bcb82612b64565b604082019050919050565b60006020820190508181036000830152612bef81612bb3565b9050919050565b7f4552433732313a2062616c616e636520717565727920666f7220746865207a6560008201527f726f206164647265737300000000000000000000000000000000000000000000602082015250565b6000612c52602a836120c3565b9150612c5d82612bf6565b604082019050919050565b60006020820190508181036000830152612c8181612c45565b9050919050565b7f4552433732314d657461646174613a2055524920717565727920666f72206e6f60008201527f6e6578697374656e7420746f6b656e0000000000000000000000000000000000602082015250565b6000612ce4602f836120c3565b9150612cef82612c88565b604082019050919050565b60006020820190508181036000830152612d1381612cd7565b9050919050565b600081905092915050565b6000612d30826120b8565b612d3a8185612d1a565b9350612d4a8185602086016120d4565b80840191505092915050565b6000612d628285612d25565b9150612d6e8284612d25565b91508190509392505050565b7f596f7520617265206e6f7420746865206f776e65720000000000000000000000600082015250565b6000612db06015836120c3565b9150612dbb82612d7a565b602082019050919050565b60006020820190508181036000830152612ddf81612da3565b9050919050565b7f4552433732313a206f70657261746f7220717565727920666f72206e6f6e657860008201527f697374656e7420746f6b656e0000000000000000000000000000000000000000602082015250565b6000612e42602c836120c3565b9150612e4d82612de6565b604082019050919050565b60006020820190508181036000830152612e7181612e35565b9050919050565b7f4552433732313a207472616e73666572206f6620746f6b656e2074686174206960008201527f73206e6f74206f776e0000000000000000000000000000000000000000000000602082015250565b6000612ed46029836120c3565b9150612edf82612e78565b604082019050919050565b60006020820190508181036000830152612f0381612ec7565b9050919050565b7f4552433732313a207472616e7366657220746f20746865207a65726f2061646460008201527f7265737300000000000000000000000000000000000000000000000000000000602082015250565b6000612f666024836120c3565b9150612f7182612f0a565b604082019050919050565b60006020820190508181036000830152612f9581612f59565b9050919050565b6000612fa78261202b565b9150612fb28361202b565b9250827fffffffffffffffffffffffffffffffffffffffffffffffffffffffffffffffff03821115612fe757612fe6612a6f565b5b828201905092915050565b7f4552433732313a206d696e7420746f20746865207a65726f2061646472657373600082015250565b60006130286020836120c3565b915061303382612ff2565b602082019050919050565b600060208201905081810360008301526130578161301b565b9050919050565b7f4552433732313a20746f6b656e20616c7265616479206d696e74656400000000600082015250565b6000613094601c836120c3565b915061309f8261305e565b602082019050919050565b600060208201905081810360008301526130c381613087565b9050919050565b7f4552433732313a20617070726f766520746f2063616c6c657200000000000000600082015250565b60006131006019836120c3565b915061310b826130ca565b602082019050919050565b6000602082019050818103600083015261312f816130f3565b9050919050565b7f4552433732313a207472616e7366657220746f206e6f6e20455243373231526560008201527f63656976657220696d706c656d656e7465720000000000000000000000000000602082015250565b60006131926032836120c3565b915061319d82613136565b604082019050919050565b600060208201905081810360008301526131c181613185565b9050919050565b60006131d38261202b565b91507fffffffffffffffffffffffffffffffffffffffffffffffffffffffffffffffff82141561320657613205612a6f565b5b600182019050919050565b7f4e487b7100000000000000000000000000000000000000000000000000000000600052601260045260246000fd5b600061324b8261202b565b91506132568361202b565b92508261326657613265613211565b5b828204905092915050565b600061327c8261202b565b91506132878361202b565b92508261329757613296613211565b5b828206905092915050565b7f4e487b7100000000000000000000000000000000000000000000000000000000600052603260045260246000fd5b600081519050919050565b600082825260208201905092915050565b60006132f8826132d1565b61330281856132dc565b93506133128185602086016120d4565b61331b81612107565b840191505092915050565b600060808201905061333b60008301876121a5565b61334860208301866121a5565b613355604083018561208e565b818103606083015261336781846132ed565b905095945050505050565b60008151905061338181611f9c565b92915050565b60006020828403121561339d5761339c611f66565b5b60006133ab84828501613372565b9150509291505056fea26469706673582212207fb9b52d92eeafaf0f1128baad4ea6c9e1c15ad390472baab5dedb0920b65c6764736f6c634300080b0033",
  "immutableReferences": {},
  "source": "// SPDX-License-Identifier: MIT\r\npragma solidity ^0.8.0;\r\n\r\nimport \"../node_modules/openzeppelin-solidity/contracts/token/ERC721/ERC721.sol\";\r\n\r\ncontract StarNotary is ERC721 {\r\n\r\n    constructor() ERC721(\"test name\", \"TSTN\") {\r\n        // only definition is good\r\n    }\r\n\r\n    struct Star {\r\n        string name;\r\n    }\r\n\r\n    // Implement Task 1 Add a name and symbol properties\r\n    // name: Is a short name to your token\r\n    // symbol: Is a short string like 'USD' -> 'American Dollar'\r\n    string public starName = 'Star Token Project2';\r\n    string public starSymbol = 'ST2';\r\n\r\n    // mapping the Star with the Owner Address\r\n    mapping(uint256 => Star) public tokenIdToStarInfo;\r\n    // mapping the TokenId and price\r\n    mapping(uint256 => uint256) public starsForSale;\r\n\r\n    // Creating a new star using the struct Star\r\n    function createStar(string memory _name, uint256 _tokenId) public {\r\n        Star memory newStar = Star(_name);\r\n        tokenIdToStarInfo[_tokenId] = newStar;\r\n        _mint(msg.sender, _tokenId);\r\n        // _mint(address(this), _tokenId);\r\n    }\r\n\r\n    // putting up star for sale.  (Adding the star tokenid into the mapping starsForSale, first verify that the sender is the owner)\r\n    function putStarUpForSale(uint256 _tokenId, uint256 _price) public {\r\n        require(ownerOf(_tokenId) == msg.sender, \"Not an owner to put up star for sale\");\r\n        starsForSale[_tokenId] = _price;\r\n    }\r\n\r\n    // Function that allows you to convert an address into a payable address\r\n    function _make_payable(address x) internal pure returns (address payable) {\r\n        return payable(x); //address(uint160(x));\r\n    }\r\n\r\n    // Function to buy this star\r\n    function buyStar(uint256 _tokenId) public payable {\r\n        require(starsForSale[_tokenId] > 0, \"the star should be up for sale\");\r\n        uint starCost = starsForSale[_tokenId];\r\n        address ownerAddress = ownerOf(_tokenId);\r\n        require(msg.value > starCost, \"You need to have enough Ether\");\r\n        transferFrom(ownerAddress, msg.sender, _tokenId); // We can't use _addTokenTo or_removeTokenFrom functions, now we have to use _transferFrom\r\n        address payable ownerAddressPayable = _make_payable(ownerAddress); // We need to make this conversion to be able to use transfer() function to transfer ethers\r\n        ownerAddressPayable.transfer(starCost);\r\n        if(msg.value > starCost) {\r\n            payable(msg.sender).transfer(msg.value - starCost);\r\n        }\r\n        // starsForSale[_tokenId] = 0;\r\n    }\r\n    // Implement Task 1 lookUptokenIdToStarInfo\r\n    function lookUptokenIdToStarInfo (uint _tokenId) public view returns (string memory) {\r\n        //1. You should return the Star saved in tokenIdToStarInfo mapping\r\n        return tokenIdToStarInfo[_tokenId].name;  // returning star name\r\n    }\r\n\r\n    // Implement Task 1 Exchange Stars function\r\n    function exchangeStars(uint256 _tokenId1, uint256 _tokenId2) public {\r\n        //1. Passing to star tokenId you will need to check if the owner of _tokenId1 or _tokenId2 is the sender\r\n        //2. You don't have to check for the price of the token (star)\r\n        //3. Get the owner of the two tokens (ownerOf(_tokenId1), ownerOf(_tokenId1)\r\n        //4. Use _transferFrom function to exchange the tokens.\r\n\r\n        address ownerOfToken1 = ownerOf(_tokenId1);\r\n        address ownerOfToken2 = ownerOf(_tokenId2);\r\n\r\n        // exception handling of owning a star\r\n        require(ownerOfToken1 == msg.sender || ownerOfToken2 == msg.sender, \"You must own a star to exchange it\");\r\n        \r\n        // transfer stars\r\n        transferFrom(ownerOfToken1, ownerOfToken2, _tokenId1); // move owner of 1 to 2\r\n        transferFrom(ownerOfToken2, ownerOfToken1, _tokenId2); // move owner of 2 to 1\r\n    }\r\n\r\n    // Implement Task 1 Transfer Stars\r\n    function transferStar(address _to1, uint256 _tokenId) public {\r\n        //1. Check if the sender is the ownerOf(_tokenId)\r\n        //2. Use the transferFrom(from, to, tokenId); function to transfer the Star\r\n\r\n        address tokenOwner = ownerOf(_tokenId);\r\n        require (tokenOwner == msg.sender, \"You are not the owner\");\r\n        transferFrom(tokenOwner, _to1, _tokenId);  // transfer token owner\r\n    }\r\n}",
  "sourcePath": "E:\\blockchain\\udacity_final\\project2\\contracts\\StarNotary.sol",
  "compiler": {
    "name": "solc",
    "version": "0.8.11+commit.d7f03943.Emscripten.clang"
  },
  "schemaVersion": "3.4.4",
  "updatedAt": "2022-02-09T16:50:44.554Z",
  "networkType": "ethereum",
  "devdoc": {
    "kind": "dev",
    "methods": {
      "approve(address,uint256)": {
        "details": "See {IERC721-approve}."
      },
      "balanceOf(address)": {
        "details": "See {IERC721-balanceOf}."
      },
      "getApproved(uint256)": {
        "details": "See {IERC721-getApproved}."
      },
      "isApprovedForAll(address,address)": {
        "details": "See {IERC721-isApprovedForAll}."
      },
      "name()": {
        "details": "See {IERC721Metadata-name}."
      },
      "ownerOf(uint256)": {
        "details": "See {IERC721-ownerOf}."
      },
      "safeTransferFrom(address,address,uint256)": {
        "details": "See {IERC721-safeTransferFrom}."
      },
      "safeTransferFrom(address,address,uint256,bytes)": {
        "details": "See {IERC721-safeTransferFrom}."
      },
      "setApprovalForAll(address,bool)": {
        "details": "See {IERC721-setApprovalForAll}."
      },
      "supportsInterface(bytes4)": {
        "details": "See {IERC165-supportsInterface}."
      },
      "symbol()": {
        "details": "See {IERC721Metadata-symbol}."
      },
      "tokenURI(uint256)": {
        "details": "See {IERC721Metadata-tokenURI}."
      },
      "transferFrom(address,address,uint256)": {
        "details": "See {IERC721-transferFrom}."
      }
    },
    "version": 1
  },
  "userdoc": {
    "kind": "user",
    "methods": {},
    "version": 1
  }
}